{"abi":[{"type":"function","name":"UPGRADE_INTERFACE_VERSION","inputs":[],"outputs":[{"name":"","type":"string","internalType":"string"}],"stateMutability":"view"},{"type":"function","name":"VERSION","inputs":[],"outputs":[{"name":"","type":"string","internalType":"string"}],"stateMutability":"view"},{"type":"function","name":"createDeploymentRequest","inputs":[{"name":"projectId","type":"bytes32","internalType":"bytes32"},{"name":"solverAddress","type":"address","internalType":"address"},{"name":"base64Proposal","type":"string","internalType":"string"},{"name":"serverURL","type":"string","internalType":"string"}],"outputs":[{"name":"requestID","type":"bytes32","internalType":"bytes32"}],"stateMutability":"nonpayable"},{"type":"function","name":"createPrivateDeploymentRequest","inputs":[{"name":"projectId","type":"bytes32","internalType":"bytes32"},{"name":"solverAddress","type":"address","internalType":"address"},{"name":"privateWorkerAddress","type":"address","internalType":"address"},{"name":"base64Proposal","type":"string","internalType":"string"},{"name":"serverURL","type":"string","internalType":"string"}],"outputs":[{"name":"requestID","type":"bytes32","internalType":"bytes32"}],"stateMutability":"nonpayable"},{"type":"function","name":"createPrivateProposalRequest","inputs":[{"name":"projectId","type":"bytes32","internalType":"bytes32"},{"name":"privateSolverAddress","type":"address","internalType":"address"},{"name":"base64RecParam","type":"string","internalType":"string"},{"name":"serverURL","type":"string","internalType":"string"}],"outputs":[{"name":"requestID","type":"bytes32","internalType":"bytes32"}],"stateMutability":"nonpayable"},{"type":"function","name":"createProjectID","inputs":[],"outputs":[{"name":"projectId","type":"bytes32","internalType":"bytes32"}],"stateMutability":"nonpayable"},{"type":"function","name":"createProjectIDAndDeploymentRequest","inputs":[{"name":"base64Proposal","type":"string","internalType":"string"},{"name":"serverURL","type":"string","internalType":"string"}],"outputs":[{"name":"requestID","type":"bytes32","internalType":"bytes32"}],"stateMutability":"nonpayable"},{"type":"function","name":"createProjectIDAndProposalRequest","inputs":[{"name":"base64RecParam","type":"string","internalType":"string"},{"name":"serverURL","type":"string","internalType":"string"}],"outputs":[],"stateMutability":"nonpayable"},{"type":"function","name":"createProposalRequest","inputs":[{"name":"projectId","type":"bytes32","internalType":"bytes32"},{"name":"base64RecParam","type":"string","internalType":"string"},{"name":"serverURL","type":"string","internalType":"string"}],"outputs":[{"name":"requestID","type":"bytes32","internalType":"bytes32"}],"stateMutability":"nonpayable"},{"type":"function","name":"dummyAddress","inputs":[],"outputs":[{"name":"","type":"address","internalType":"address"}],"stateMutability":"view"},{"type":"function","name":"factor","inputs":[],"outputs":[{"name":"","type":"uint256","internalType":"uint256"}],"stateMutability":"view"},{"type":"function","name":"getDeploymentStatus","inputs":[{"name":"requestID","type":"bytes32","internalType":"bytes32"}],"outputs":[{"name":"","type":"uint8","internalType":"enum Blueprint.Status"},{"name":"","type":"address","internalType":"address"}],"stateMutability":"view"},{"type":"function","name":"getLatestDeploymentRequestID","inputs":[{"name":"addr","type":"address","internalType":"address"}],"outputs":[{"name":"","type":"bytes32","internalType":"bytes32"}],"stateMutability":"view"},{"type":"function","name":"getLatestProposalRequestID","inputs":[{"name":"addr","type":"address","internalType":"address"}],"outputs":[{"name":"","type":"bytes32","internalType":"bytes32"}],"stateMutability":"view"},{"type":"function","name":"getLatestUserProjectID","inputs":[{"name":"addr","type":"address","internalType":"address"}],"outputs":[{"name":"","type":"bytes32","internalType":"bytes32"}],"stateMutability":"view"},{"type":"function","name":"getReputation","inputs":[{"name":"addr","type":"address","internalType":"address"}],"outputs":[{"name":"","type":"uint256","internalType":"uint256"}],"stateMutability":"view"},{"type":"function","name":"initialize","inputs":[],"outputs":[],"stateMutability":"nonpayable"},{"type":"function","name":"latestDeploymentRequestID","inputs":[{"name":"","type":"address","internalType":"address"}],"outputs":[{"name":"","type":"bytes32","internalType":"bytes32"}],"stateMutability":"view"},{"type":"function","name":"latestProjectID","inputs":[{"name":"","type":"address","internalType":"address"}],"outputs":[{"name":"","type":"bytes32","internalType":"bytes32"}],"stateMutability":"view"},{"type":"function","name":"latestProposalRequestID","inputs":[{"name":"","type":"address","internalType":"address"}],"outputs":[{"name":"","type":"bytes32","internalType":"bytes32"}],"stateMutability":"view"},{"type":"function","name":"owner","inputs":[],"outputs":[{"name":"","type":"address","internalType":"address"}],"stateMutability":"view"},{"type":"function","name":"proxiableUUID","inputs":[],"outputs":[{"name":"","type":"bytes32","internalType":"bytes32"}],"stateMutability":"view"},{"type":"function","name":"renounceOwnership","inputs":[],"outputs":[],"stateMutability":"nonpayable"},{"type":"function","name":"requestDeploymentStatus","inputs":[{"name":"","type":"bytes32","internalType":"bytes32"}],"outputs":[{"name":"status","type":"uint8","internalType":"enum Blueprint.Status"},{"name":"deployWorkerAddr","type":"address","internalType":"address"}],"stateMutability":"view"},{"type":"function","name":"solverReputation","inputs":[{"name":"","type":"address","internalType":"address"}],"outputs":[{"name":"","type":"uint256","internalType":"uint256"}],"stateMutability":"view"},{"type":"function","name":"submitDeploymentRequest","inputs":[{"name":"projectId","type":"bytes32","internalType":"bytes32"},{"name":"requestID","type":"bytes32","internalType":"bytes32"}],"outputs":[{"name":"isAccepted","type":"bool","internalType":"bool"}],"stateMutability":"nonpayable"},{"type":"function","name":"submitProofOfDeployment","inputs":[{"name":"projectId","type":"bytes32","internalType":"bytes32"},{"name":"requestID","type":"bytes32","internalType":"bytes32"},{"name":"proofBase64","type":"string","internalType":"string"}],"outputs":[],"stateMutability":"nonpayable"},{"type":"function","name":"totalDeploymentRequest","inputs":[],"outputs":[{"name":"","type":"uint256","internalType":"uint256"}],"stateMutability":"view"},{"type":"function","name":"totalProposalRequest","inputs":[],"outputs":[{"name":"","type":"uint256","internalType":"uint256"}],"stateMutability":"view"},{"type":"function","name":"transferOwnership","inputs":[{"name":"newOwner","type":"address","internalType":"address"}],"outputs":[],"stateMutability":"nonpayable"},{"type":"function","name":"upgradeToAndCall","inputs":[{"name":"newImplementation","type":"address","internalType":"address"},{"name":"data","type":"bytes","internalType":"bytes"}],"outputs":[],"stateMutability":"payable"},{"type":"function","name":"workerReputation","inputs":[{"name":"","type":"address","internalType":"address"}],"outputs":[{"name":"","type":"uint256","internalType":"uint256"}],"stateMutability":"view"},{"type":"event","name":"AcceptDeployment","inputs":[{"name":"projectID","type":"bytes32","indexed":true,"internalType":"bytes32"},{"name":"requestID","type":"bytes32","indexed":true,"internalType":"bytes32"},{"name":"workerAddress","type":"address","indexed":true,"internalType":"address"}],"anonymous":false},{"type":"event","name":"CreateProjectID","inputs":[{"name":"projectID","type":"bytes32","indexed":true,"internalType":"bytes32"},{"name":"walletAddress","type":"address","indexed":false,"internalType":"address"}],"anonymous":false},{"type":"event","name":"GeneratedProofOfDeployment","inputs":[{"name":"projectID","type":"bytes32","indexed":true,"internalType":"bytes32"},{"name":"requestID","type":"bytes32","indexed":true,"internalType":"bytes32"},{"name":"base64DeploymentProof","type":"string","indexed":false,"internalType":"string"}],"anonymous":false},{"type":"event","name":"Initialized","inputs":[{"name":"version","type":"uint64","indexed":false,"internalType":"uint64"}],"anonymous":false},{"type":"event","name":"OwnershipTransferred","inputs":[{"name":"previousOwner","type":"address","indexed":true,"internalType":"address"},{"name":"newOwner","type":"address","indexed":true,"internalType":"address"}],"anonymous":false},{"type":"event","name":"RequestDeployment","inputs":[{"name":"projectID","type":"bytes32","indexed":true,"internalType":"bytes32"},{"name":"walletAddress","type":"address","indexed":false,"internalType":"address"},{"name":"solverAddress","type":"address","indexed":false,"internalType":"address"},{"name":"requestID","type":"bytes32","indexed":true,"internalType":"bytes32"},{"name":"base64Proposal","type":"string","indexed":false,"internalType":"string"},{"name":"serverURL","type":"string","indexed":false,"internalType":"string"}],"anonymous":false},{"type":"event","name":"RequestPrivateDeployment","inputs":[{"name":"projectID","type":"bytes32","indexed":true,"internalType":"bytes32"},{"name":"walletAddress","type":"address","indexed":false,"internalType":"address"},{"name":"privateWorkerAddress","type":"address","indexed":false,"internalType":"address"},{"name":"solverAddress","type":"address","indexed":false,"internalType":"address"},{"name":"requestID","type":"bytes32","indexed":true,"internalType":"bytes32"},{"name":"base64Proposal","type":"string","indexed":false,"internalType":"string"},{"name":"serverURL","type":"string","indexed":false,"internalType":"string"}],"anonymous":false},{"type":"event","name":"RequestPrivateProposal","inputs":[{"name":"projectID","type":"bytes32","indexed":true,"internalType":"bytes32"},{"name":"walletAddress","type":"address","indexed":false,"internalType":"address"},{"name":"privateSolverAddress","type":"address","indexed":false,"internalType":"address"},{"name":"requestID","type":"bytes32","indexed":true,"internalType":"bytes32"},{"name":"base64RecParam","type":"string","indexed":false,"internalType":"string"},{"name":"serverURL","type":"string","indexed":false,"internalType":"string"}],"anonymous":false},{"type":"event","name":"RequestProposal","inputs":[{"name":"projectID","type":"bytes32","indexed":true,"internalType":"bytes32"},{"name":"walletAddress","type":"address","indexed":false,"internalType":"address"},{"name":"requestID","type":"bytes32","indexed":true,"internalType":"bytes32"},{"name":"base64RecParam","type":"string","indexed":false,"internalType":"string"},{"name":"serverURL","type":"string","indexed":false,"internalType":"string"}],"anonymous":false},{"type":"event","name":"Upgraded","inputs":[{"name":"implementation","type":"address","indexed":true,"internalType":"address"}],"anonymous":false},{"type":"error","name":"AddressEmptyCode","inputs":[{"name":"target","type":"address","internalType":"address"}]},{"type":"error","name":"ERC1967InvalidImplementation","inputs":[{"name":"implementation","type":"address","internalType":"address"}]},{"type":"error","name":"ERC1967NonPayable","inputs":[]},{"type":"error","name":"FailedCall","inputs":[]},{"type":"error","name":"InvalidInitialization","inputs":[]},{"type":"error","name":"NotInitializing","inputs":[]},{"type":"error","name":"OwnableInvalidOwner","inputs":[{"name":"owner","type":"address","internalType":"address"}]},{"type":"error","name":"OwnableUnauthorizedAccount","inputs":[{"name":"account","type":"address","internalType":"address"}]},{"type":"error","name":"UUPSUnauthorizedCallContext","inputs":[]},{"type":"error","name":"UUPSUnsupportedProxiableUUID","inputs":[{"name":"slot","type":"bytes32","internalType":"bytes32"}]}],"bytecode":{"object":"0x60a060405230608052600e80546001600160a01b03191690553480156022575f5ffd5b5060805161210e6100495f395f818161129b015281816112c40152611408015261210e5ff3fe6080604052600436106101db575f3560e01c806383c49efa116100fd578063be539d3f11610092578063f11d367511610062578063f11d36751461060e578063f2fde38b14610642578063fcc8293914610661578063ffa1ad741461069f575f5ffd5b8063be539d3f14610561578063ce1b4ff514610590578063e128fced146105c4578063ed3c95c0146105e3575f5ffd5b8063a97bedfe116100cd578063a97bedfe146104bc578063ad3cb1cc146104d1578063b9bb71351461050e578063bae7e16c14610542575f5ffd5b806383c49efa1461041857806384717e901461042d5780638da5cb5b1461044c5780639c89a0e214610488575f5ffd5b806354f703f811610173578063715018a611610143578063715018a6146103a65780637371498c146103ba5780638129fc1c146103d9578063822c737a146103ed575f5ffd5b806354f703f81461032857806356ed87521461033d57806359617ef7146103685780636875dbb014610387575f5ffd5b806313d629a6116101ae57806313d629a6146102cc5780632ae189d8146102eb5780634f1ef286146102ff57806352d1902d14610314575f5ffd5b806305b38312146101df578063078ebeae1461021b57806308a101b814610254578063094705361461027f575b5f5ffd5b3480156101ea575f5ffd5b50600e546101fe906001600160a01b031681565b6040516001600160a01b0390911681526020015b60405180910390f35b348015610226575f5ffd5b50610246610235366004611992565b60056020525f908152604090205481565b604051908152602001610212565b34801561025f575f5ffd5b5061024661026e366004611992565b60086020525f908152604090205481565b34801561028a575f5ffd5b506102be6102993660046119ab565b5f9081526009602052604090205460ff8116916101009091046001600160a01b031690565b6040516102129291906119d6565b3480156102d7575f5ffd5b506102466102e6366004611ab5565b6106b3565b3480156102f6575f5ffd5b50610246610733565b61031261030d366004611b18565b610849565b005b34801561031f575f5ffd5b50610246610868565b348015610333575f5ffd5b5061024660015481565b348015610348575f5ffd5b50610246610357366004611992565b60066020525f908152604090205481565b348015610373575f5ffd5b50610246610382366004611b6b565b610883565b348015610392575f5ffd5b506103126103a1366004611ab5565b6108d9565b3480156103b1575f5ffd5b506103126108f5565b3480156103c5575f5ffd5b506102466103d4366004611b6b565b610908565b3480156103e4575f5ffd5b506103126109b3565b3480156103f8575f5ffd5b50610246610407366004611992565b60046020525f908152604090205481565b348015610423575f5ffd5b5061024660035481565b348015610438575f5ffd5b50610246610447366004611be7565b610ad4565b348015610457575f5ffd5b507f9016d09d72d40fdae2fd8ceac6b6234c7706214fd39c1cd1e609a0528c199300546001600160a01b03166101fe565b348015610493575f5ffd5b506102466104a2366004611992565b6001600160a01b03165f9081526007602052604090205490565b3480156104c7575f5ffd5b5061024660025481565b3480156104dc575f5ffd5b50610501604051806040016040528060058152602001640352e302e360dc1b81525081565b6040516102129190611c80565b348015610519575f5ffd5b50610246610528366004611992565b6001600160a01b03165f9081526005602052604090205490565b34801561054d575f5ffd5b5061024661055c366004611c92565b610b35565b34801561056c575f5ffd5b5061058061057b366004611d1e565b610c1d565b6040519015158152602001610212565b34801561059b575f5ffd5b506102466105aa366004611992565b6001600160a01b03165f9081526006602052604090205490565b3480156105cf575f5ffd5b506103126105de366004611d3e565b610dd2565b3480156105ee575f5ffd5b506102466105fd366004611992565b60076020525f908152604090205481565b348015610619575f5ffd5b50610246610628366004611992565b6001600160a01b03165f9081526004602052604090205490565b34801561064d575f5ffd5b5061031261065c366004611992565b610f9e565b34801561066c575f5ffd5b506102be61067b3660046119ab565b60096020525f908152604090205460ff81169061010090046001600160a01b031682565b3480156106aa575f5ffd5b50610501610fdb565b5f5f6106bd610733565b600e549091506106da9082906001600160a01b0316808787611066565b600e54604051919350839183917fcdde0392731ff1ddcc3295ee84db8db4a9ad3d8f34056867af8c9f3b2920d44e916107249133916001600160a01b03909116908a908a90611d73565b60405180910390a35092915050565b604080514260208201526bffffffffffffffffffffffff193360601b16918101919091524660548201525f9060740160408051601f1981840301815291815281516020928301205f818152600d9093529120549091506001600160a01b0316156107e45760405162461bcd60e51b815260206004820152601760248201527f70726f6a656374496420616c726561647920657869737400000000000000000060448201526064015b60405180910390fd5b5f818152600d6020908152604080832080546001600160a01b0319163390811790915580845260068352928190208490555191825282917f988dde20b788b20d2f8188ab37bc9419a99761fc4ec19356dc30cfa49b4601dc910160405180910390a290565b610851611290565b61085a82611334565b610864828261133c565b5050565b5f6108716113fd565b505f5160206120b95f395f51905f5290565b5f61089085858585611446565b905080857f1eb4ec68b7c7cf7850d18fd32bdd1cb9e2c9b7e1de32211eef093af3cf262aee338787876040516108c99493929190611d73565b60405180910390a3949350505050565b5f6108e2610733565b90506108ef818484610ad4565b50505050565b6108fd6115a2565b6109065f6115fd565b565b5f6001600160a01b03841661095f5760405162461bcd60e51b815260206004820152601a60248201527f736f6c76657241646472657373206973206e6f742076616c696400000000000060448201526064016107db565b600e5461097a90869086906001600160a01b03168686611066565b905080857fcdde0392731ff1ddcc3295ee84db8db4a9ad3d8f34056867af8c9f3b2920d44e338787876040516108c99493929190611d73565b7ff0c57e16840df040f15088dc2f81fe391c3923bec73e23a9662efc9c229c6a00805460019190600160401b900460ff16806109fc575080546001600160401b03808416911610155b15610a1a5760405163f92ee8a960e01b815260040160405180910390fd5b805468ffffffffffffffffff19166001600160401b03831617600160401b178155610a443361166d565b610a4c61167e565b6040805180820190915260058152640312e302e360dc1b60208201525f90610a749082611e3e565b506127106001555f6002819055600355805468ff0000000000000000191681556040516001600160401b03831681527fc7f505b2f371ae2175ee4913f4499e1f2633a7b5936321eed1cdaeb6115181d29060200160405180910390a15050565b600e545f90610aef9085906001600160a01b03168585611446565b905080847f660f0cd9ab48b3916970cca5763925f3b8f0e0e158fb9f0f4ae5f71e9605d767338686604051610b2693929190611ef8565b60405180910390a39392505050565b5f6001600160a01b038516610b8c5760405162461bcd60e51b815260206004820152601a60248201527f736f6c76657241646472657373206973206e6f742076616c696400000000000060448201526064016107db565b610b998686868686611066565b905080867f26e5b75b543be1cdad2907ba50a99eeb5c3a05381eee18d5b6a565b2bbccd1ba3387898888604051610bd4959493929190611f37565b60405180910390a3836001600160a01b031681877f065b3b95166dc6cadb255ba57b9623fa09d0519437b43d13dbd0d7f7a5ee9b7660405160405180910390a495945050505050565b5f828152600d60205260408120546001600160a01b0316610c505760405162461bcd60e51b81526004016107db90611f88565b5f8281526009602052604081205460ff166005811115610c7257610c726119c2565b03610cbf5760405162461bcd60e51b815260206004820152601860248201527f72657175657374494420646f6573206e6f74206578697374000000000000000060448201526064016107db565b60025f8381526009602052604090205460ff166005811115610ce357610ce36119c2565b03610d645760405162461bcd60e51b815260206004820152604560248201527f72657175657374494420616c7265616479207069636b656420627920616e6f7460448201527f68657220776f726b65722c20747279206120646966666572656e742072657175606482015264195cdd125160da1b608482015260a4016107db565b505f81815260096020526040808220805460026101003381026001600160a81b03199093169290921717918290559151600193929091046001600160a01b031691849186917f065b3b95166dc6cadb255ba57b9623fa09d0519437b43d13dbd0d7f7a5ee9b7691a492915050565b5f838152600d60205260409020546001600160a01b0316610e055760405162461bcd60e51b81526004016107db90611f88565b5f8281526009602052604081205460ff166005811115610e2757610e276119c2565b03610e6a5760405162461bcd60e51b81526020600482015260136024820152721c995c5d595cdd081251081b9bdd08195e1a5d606a1b60448201526064016107db565b5f8281526009602052604090205461010090046001600160a01b03163314610ecb5760405162461bcd60e51b815260206004820152601460248201527377726f6e6720776f726b6572206164647265737360601b60448201526064016107db565b60055f8381526009602052604090205460ff166005811115610eef57610eef6119c2565b03610f335760405162461bcd60e51b815260206004820152601460248201527330b63932b0b23c9039bab136b4ba10383937b7b360611b60448201526064016107db565b5f828152600960209081526040808320805460ff19166005179055600a9091529020610f5f8282611e3e565b5081837fddb29833db778500c94a5880f1a8ad549d91ec7c80faee2b3735bda881fa6d9883604051610f919190611c80565b60405180910390a3505050565b610fa66115a2565b6001600160a01b038116610fcf57604051631e4fbdf760e01b81525f60048201526024016107db565b610fd8816115fd565b50565b5f8054610fe790611dbb565b80601f016020809104026020016040519081016040528092919081815260200182805461101390611dbb565b801561105e5780601f106110355761010080835404028352916020019161105e565b820191905f5260205f20905b81548152906001019060200180831161104157829003601f168201915b505050505081565b5f858152600d60205260408120546001600160a01b03166110995760405162461bcd60e51b81526004016107db90611f88565b5f8251116110de5760405162461bcd60e51b815260206004820152601260248201527173657276657255524c20697320656d70747960701b60448201526064016107db565b5f83511161112e5760405162461bcd60e51b815260206004820152601760248201527f62617365363450726f706f73616c20697320656d70747900000000000000000060448201526064016107db565b423384466040516020016111459493929190611fd6565b60408051601f198184030181529181528151602092830120335f908152600590935290822081905560038054919350909161117f83612022565b919050555061118d85611686565b50604080518082019091525f80825260208201526001600160a01b0385166112125760018082525f838152600960205260409020825181548493839160ff1916908360058111156111e0576111e06119c2565b02179055506020919091015181546001600160a01b0390911661010002610100600160a81b0319909116179055611286565b600281526001600160a01b0385166020808301919091525f8381526009909152604090208151815483929190829060ff19166001836005811115611258576112586119c2565b02179055506020919091015181546001600160a01b0390911661010002610100600160a81b03199091161790555b5095945050505050565b306001600160a01b037f000000000000000000000000000000000000000000000000000000000000000016148061131657507f00000000000000000000000000000000000000000000000000000000000000006001600160a01b031661130a5f5160206120b95f395f51905f52546001600160a01b031690565b6001600160a01b031614155b156109065760405163703e46dd60e11b815260040160405180910390fd5b610fd86115a2565b816001600160a01b03166352d1902d6040518163ffffffff1660e01b8152600401602060405180830381865afa925050508015611396575060408051601f3d908101601f191682019092526113939181019061203a565b60015b6113be57604051634c9c8ce360e01b81526001600160a01b03831660048201526024016107db565b5f5160206120b95f395f51905f5281146113ee57604051632a87526960e21b8152600481018290526024016107db565b6113f88383611753565b505050565b306001600160a01b037f000000000000000000000000000000000000000000000000000000000000000016146109065760405163703e46dd60e11b815260040160405180910390fd5b5f848152600d60205260408120546001600160a01b03166114795760405162461bcd60e51b81526004016107db90611f88565b5f8251116114be5760405162461bcd60e51b815260206004820152601260248201527173657276657255524c20697320656d70747960701b60448201526064016107db565b5f83511161150e5760405162461bcd60e51b815260206004820152601760248201527f626173653634526563506172616d20697320656d70747900000000000000000060448201526064016107db565b423384466040516020016115259493929190611fd6565b60408051601f198184030181529181528151602092830120335f908152600490935290822081905560028054919350909161155f83612022565b90915550506001600160a01b0384161561159a575f818152600b6020526040902080546001600160a01b0319166001600160a01b0386161790555b949350505050565b336115d47f9016d09d72d40fdae2fd8ceac6b6234c7706214fd39c1cd1e609a0528c199300546001600160a01b031690565b6001600160a01b0316146109065760405163118cdaa760e01b81523360048201526024016107db565b7f9016d09d72d40fdae2fd8ceac6b6234c7706214fd39c1cd1e609a0528c19930080546001600160a01b031981166001600160a01b03848116918217845560405192169182907f8be0079c531659141344cd1fd0a4f28419497f9722a3daafe3b4186f6b6457e0905f90a3505050565b6116756117a8565b610fd8816117f1565b6109066117a8565b6001600160a01b0381165f908152600760205260409020546001546116ac906006612051565b8110156116c7576001546116c09082612068565b9050611735565b6103e86002541115611702576002546001546116e4906006612051565b6116ee908361207b565b6116f8919061208e565b6116c09082612068565b6103e860015460066117149190612051565b61171e908361207b565b611728919061208e565b6117329082612068565b90505b6001600160a01b039091165f90815260076020526040902081905590565b61175c826117f9565b6040516001600160a01b038316907fbc7cd75a20ee27fd9adebab32041f755214dbc6bffa90cc0225b39da2e5c2d3b905f90a28051156117a0576113f8828261185c565b6108646118d0565b7ff0c57e16840df040f15088dc2f81fe391c3923bec73e23a9662efc9c229c6a0054600160401b900460ff1661090657604051631afcd79f60e31b815260040160405180910390fd5b610fa66117a8565b806001600160a01b03163b5f0361182e57604051634c9c8ce360e01b81526001600160a01b03821660048201526024016107db565b5f5160206120b95f395f51905f5280546001600160a01b0319166001600160a01b0392909216919091179055565b60605f5f846001600160a01b03168460405161187891906120ad565b5f60405180830381855af49150503d805f81146118b0576040519150601f19603f3d011682016040523d82523d5f602084013e6118b5565b606091505b50915091506118c58583836118ef565b925050505b92915050565b34156109065760405163b398979f60e01b815260040160405180910390fd5b606082611904576118ff8261194e565b611947565b815115801561191b57506001600160a01b0384163b155b1561194457604051639996b31560e01b81526001600160a01b03851660048201526024016107db565b50805b9392505050565b80511561195e5780518082602001fd5b60405163d6bda27560e01b815260040160405180910390fd5b80356001600160a01b038116811461198d575f5ffd5b919050565b5f602082840312156119a2575f5ffd5b61194782611977565b5f602082840312156119bb575f5ffd5b5035919050565b634e487b7160e01b5f52602160045260245ffd5b60408101600684106119f657634e487b7160e01b5f52602160045260245ffd5b9281526001600160a01b039190911660209091015290565b634e487b7160e01b5f52604160045260245ffd5b5f5f6001600160401b03841115611a3b57611a3b611a0e565b50604051601f19601f85018116603f011681018181106001600160401b0382111715611a6957611a69611a0e565b604052838152905080828401851015611a80575f5ffd5b838360208301375f60208583010152509392505050565b5f82601f830112611aa6575f5ffd5b61194783833560208501611a22565b5f5f60408385031215611ac6575f5ffd5b82356001600160401b03811115611adb575f5ffd5b611ae785828601611a97565b92505060208301356001600160401b03811115611b02575f5ffd5b611b0e85828601611a97565b9150509250929050565b5f5f60408385031215611b29575f5ffd5b611b3283611977565b915060208301356001600160401b03811115611b4c575f5ffd5b8301601f81018513611b5c575f5ffd5b611b0e85823560208401611a22565b5f5f5f5f60808587031215611b7e575f5ffd5b84359350611b8e60208601611977565b925060408501356001600160401b03811115611ba8575f5ffd5b611bb487828801611a97565b92505060608501356001600160401b03811115611bcf575f5ffd5b611bdb87828801611a97565b91505092959194509250565b5f5f5f60608486031215611bf9575f5ffd5b8335925060208401356001600160401b03811115611c15575f5ffd5b611c2186828701611a97565b92505060408401356001600160401b03811115611c3c575f5ffd5b611c4886828701611a97565b9150509250925092565b5f81518084528060208401602086015e5f602082860101526020601f19601f83011685010191505092915050565b602081525f6119476020830184611c52565b5f5f5f5f5f60a08688031215611ca6575f5ffd5b85359450611cb660208701611977565b9350611cc460408701611977565b925060608601356001600160401b03811115611cde575f5ffd5b611cea88828901611a97565b92505060808601356001600160401b03811115611d05575f5ffd5b611d1188828901611a97565b9150509295509295909350565b5f5f60408385031215611d2f575f5ffd5b50508035926020909101359150565b5f5f5f60608486031215611d50575f5ffd5b833592506020840135915060408401356001600160401b03811115611c3c575f5ffd5b6001600160a01b038581168252841660208201526080604082018190525f90611d9e90830185611c52565b8281036060840152611db08185611c52565b979650505050505050565b600181811c90821680611dcf57607f821691505b602082108103611ded57634e487b7160e01b5f52602260045260245ffd5b50919050565b601f8211156113f857805f5260205f20601f840160051c81016020851015611e185750805b601f840160051c820191505b81811015611e37575f8155600101611e24565b5050505050565b81516001600160401b03811115611e5757611e57611a0e565b611e6b81611e658454611dbb565b84611df3565b6020601f821160018114611e9d575f8315611e865750848201515b5f19600385901b1c1916600184901b178455611e37565b5f84815260208120601f198516915b82811015611ecc5787850151825560209485019460019092019101611eac565b5084821015611ee957868401515f19600387901b60f8161c191681555b50505050600190811b01905550565b6001600160a01b03841681526060602082018190525f90611f1b90830185611c52565b8281036040840152611f2d8185611c52565b9695505050505050565b6001600160a01b03868116825285811660208301528416604082015260a0606082018190525f90611f6a90830185611c52565b8281036080840152611f7c8185611c52565b98975050505050505050565b60208082526018908201527f70726f6a656374496420646f6573206e6f742065786973740000000000000000604082015260600190565b5f81518060208401855e5f93019283525090919050565b8481526bffffffffffffffffffffffff198460601b1660208201525f611fff6034830185611fbf565b92835250506020019392505050565b634e487b7160e01b5f52601160045260245ffd5b5f600182016120335761203361200e565b5060010190565b5f6020828403121561204a575f5ffd5b5051919050565b80820281158282048414176118ca576118ca61200e565b808201808211156118ca576118ca61200e565b818103818111156118ca576118ca61200e565b5f826120a857634e487b7160e01b5f52601260045260245ffd5b500490565b5f6119478284611fbf56fe360894a13ba1a3210667c828492db98dca3e2076cc3735a920a3ca505d382bbca264697066735822122035d544a4b5a534edc50c91af8501b849f2867918c129b4273be841ea7fa8709a64736f6c634300081c0033","linkReferences":{}},"methodIdentifiers":{"UPGRADE_INTERFACE_VERSION()":"ad3cb1cc","VERSION()":"ffa1ad74","createDeploymentRequest(bytes32,address,string,string)":"7371498c","createPrivateDeploymentRequest(bytes32,address,address,string,string)":"bae7e16c","createPrivateProposalRequest(bytes32,address,string,string)":"59617ef7","createProjectID()":"2ae189d8","createProjectIDAndDeploymentRequest(string,string)":"13d629a6","createProjectIDAndProposalRequest(string,string)":"6875dbb0","createProposalRequest(bytes32,string,string)":"84717e90","dummyAddress()":"05b38312","factor()":"54f703f8","getDeploymentStatus(bytes32)":"09470536","getLatestDeploymentRequestID(address)":"b9bb7135","getLatestProposalRequestID(address)":"f11d3675","getLatestUserProjectID(address)":"ce1b4ff5","getReputation(address)":"9c89a0e2","initialize()":"8129fc1c","latestDeploymentRequestID(address)":"078ebeae","latestProjectID(address)":"56ed8752","latestProposalRequestID(address)":"822c737a","owner()":"8da5cb5b","proxiableUUID()":"52d1902d","renounceOwnership()":"715018a6","requestDeploymentStatus(bytes32)":"fcc82939","solverReputation(address)":"ed3c95c0","submitDeploymentRequest(bytes32,bytes32)":"be539d3f","submitProofOfDeployment(bytes32,bytes32,string)":"e128fced","totalDeploymentRequest()":"83c49efa","totalProposalRequest()":"a97bedfe","transferOwnership(address)":"f2fde38b","upgradeToAndCall(address,bytes)":"4f1ef286","workerReputation(address)":"08a101b8"},"storageLayout":{"storage":[{"astId":56577,"contract":"src/BlueprintV1.sol:BlueprintV1","label":"VERSION","offset":0,"slot":"0","type":"t_string_storage"},{"astId":56579,"contract":"src/BlueprintV1.sol:BlueprintV1","label":"factor","offset":0,"slot":"1","type":"t_uint256"},{"astId":56581,"contract":"src/BlueprintV1.sol:BlueprintV1","label":"totalProposalRequest","offset":0,"slot":"2","type":"t_uint256"},{"astId":56583,"contract":"src/BlueprintV1.sol:BlueprintV1","label":"totalDeploymentRequest","offset":0,"slot":"3","type":"t_uint256"},{"astId":56587,"contract":"src/BlueprintV1.sol:BlueprintV1","label":"latestProposalRequestID","offset":0,"slot":"4","type":"t_mapping(t_address,t_bytes32)"},{"astId":56591,"contract":"src/BlueprintV1.sol:BlueprintV1","label":"latestDeploymentRequestID","offset":0,"slot":"5","type":"t_mapping(t_address,t_bytes32)"},{"astId":56595,"contract":"src/BlueprintV1.sol:BlueprintV1","label":"latestProjectID","offset":0,"slot":"6","type":"t_mapping(t_address,t_bytes32)"},{"astId":56599,"contract":"src/BlueprintV1.sol:BlueprintV1","label":"solverReputation","offset":0,"slot":"7","type":"t_mapping(t_address,t_uint256)"},{"astId":56603,"contract":"src/BlueprintV1.sol:BlueprintV1","label":"workerReputation","offset":0,"slot":"8","type":"t_mapping(t_address,t_uint256)"},{"astId":56608,"contract":"src/BlueprintV1.sol:BlueprintV1","label":"requestDeploymentStatus","offset":0,"slot":"9","type":"t_mapping(t_bytes32,t_struct(DeploymentStatus)56575_storage)"},{"astId":56612,"contract":"src/BlueprintV1.sol:BlueprintV1","label":"deploymentProof","offset":0,"slot":"10","type":"t_mapping(t_bytes32,t_string_storage)"},{"astId":56616,"contract":"src/BlueprintV1.sol:BlueprintV1","label":"requestSolver","offset":0,"slot":"11","type":"t_mapping(t_bytes32,t_address)"},{"astId":56620,"contract":"src/BlueprintV1.sol:BlueprintV1","label":"requestWorker","offset":0,"slot":"12","type":"t_mapping(t_bytes32,t_address)"},{"astId":56624,"contract":"src/BlueprintV1.sol:BlueprintV1","label":"projectIDs","offset":0,"slot":"13","type":"t_mapping(t_bytes32,t_address)"},{"astId":56630,"contract":"src/BlueprintV1.sol:BlueprintV1","label":"dummyAddress","offset":0,"slot":"14","type":"t_address"}],"types":{"t_address":{"encoding":"inplace","label":"address","numberOfBytes":"20"},"t_bytes32":{"encoding":"inplace","label":"bytes32","numberOfBytes":"32"},"t_enum(Status)56569":{"encoding":"inplace","label":"enum Blueprint.Status","numberOfBytes":"1"},"t_mapping(t_address,t_bytes32)":{"encoding":"mapping","key":"t_address","label":"mapping(address => bytes32)","numberOfBytes":"32","value":"t_bytes32"},"t_mapping(t_address,t_uint256)":{"encoding":"mapping","key":"t_address","label":"mapping(address => uint256)","numberOfBytes":"32","value":"t_uint256"},"t_mapping(t_bytes32,t_address)":{"encoding":"mapping","key":"t_bytes32","label":"mapping(bytes32 => address)","numberOfBytes":"32","value":"t_address"},"t_mapping(t_bytes32,t_string_storage)":{"encoding":"mapping","key":"t_bytes32","label":"mapping(bytes32 => string)","numberOfBytes":"32","value":"t_string_storage"},"t_mapping(t_bytes32,t_struct(DeploymentStatus)56575_storage)":{"encoding":"mapping","key":"t_bytes32","label":"mapping(bytes32 => struct Blueprint.DeploymentStatus)","numberOfBytes":"32","value":"t_struct(DeploymentStatus)56575_storage"},"t_string_storage":{"encoding":"bytes","label":"string","numberOfBytes":"32"},"t_struct(DeploymentStatus)56575_storage":{"encoding":"inplace","label":"struct Blueprint.DeploymentStatus","numberOfBytes":"32","members":[{"astId":56572,"contract":"src/BlueprintV1.sol:BlueprintV1","label":"status","offset":0,"slot":"0","type":"t_enum(Status)56569"},{"astId":56574,"contract":"src/BlueprintV1.sol:BlueprintV1","label":"deployWorkerAddr","offset":1,"slot":"0","type":"t_address"}]},"t_uint256":{"encoding":"inplace","label":"uint256","numberOfBytes":"32"}}},"id":67}