{"abi":[{"type":"function","name":"DEPLOYMENT_REQUEST_TYPEHASH","inputs":[],"outputs":[{"name":"","type":"bytes32","internalType":"bytes32"}],"stateMutability":"view"},{"type":"function","name":"PROPOSAL_REQUEST_TYPEHASH","inputs":[],"outputs":[{"name":"","type":"bytes32","internalType":"bytes32"}],"stateMutability":"view"},{"type":"function","name":"SIGNING_DOMAIN","inputs":[],"outputs":[{"name":"","type":"string","internalType":"string"}],"stateMutability":"view"},{"type":"function","name":"UPGRADE_INTERFACE_VERSION","inputs":[],"outputs":[{"name":"","type":"string","internalType":"string"}],"stateMutability":"view"},{"type":"function","name":"VERSION","inputs":[],"outputs":[{"name":"","type":"string","internalType":"string"}],"stateMutability":"view"},{"type":"function","name":"createDeploymentRequest","inputs":[{"name":"projectId","type":"bytes32","internalType":"bytes32"},{"name":"solverAddress","type":"address","internalType":"address"},{"name":"base64Proposal","type":"string","internalType":"string"},{"name":"serverURL","type":"string","internalType":"string"}],"outputs":[{"name":"requestID","type":"bytes32","internalType":"bytes32"}],"stateMutability":"nonpayable"},{"type":"function","name":"createDeploymentRequestWithSig","inputs":[{"name":"projectId","type":"bytes32","internalType":"bytes32"},{"name":"solverAddress","type":"address","internalType":"address"},{"name":"base64Proposal","type":"string","internalType":"string"},{"name":"serverURL","type":"string","internalType":"string"},{"name":"signature","type":"bytes","internalType":"bytes"}],"outputs":[{"name":"requestID","type":"bytes32","internalType":"bytes32"}],"stateMutability":"nonpayable"},{"type":"function","name":"createMultipleDeploymentRequest","inputs":[{"name":"projectId","type":"bytes32","internalType":"bytes32"},{"name":"solverAddress","type":"address","internalType":"address"},{"name":"workerAddress","type":"address","internalType":"address"},{"name":"base64Proposals","type":"string[]","internalType":"string[]"},{"name":"serverURL","type":"string","internalType":"string"}],"outputs":[{"name":"projectDeploymentID","type":"bytes32","internalType":"bytes32"}],"stateMutability":"nonpayable"},{"type":"function","name":"createPrivateDeploymentRequest","inputs":[{"name":"projectId","type":"bytes32","internalType":"bytes32"},{"name":"solverAddress","type":"address","internalType":"address"},{"name":"privateWorkerAddress","type":"address","internalType":"address"},{"name":"base64Proposal","type":"string","internalType":"string"},{"name":"serverURL","type":"string","internalType":"string"}],"outputs":[{"name":"requestID","type":"bytes32","internalType":"bytes32"}],"stateMutability":"nonpayable"},{"type":"function","name":"createPrivateDeploymentRequestWithSig","inputs":[{"name":"projectId","type":"bytes32","internalType":"bytes32"},{"name":"solverAddress","type":"address","internalType":"address"},{"name":"privateWorkerAddress","type":"address","internalType":"address"},{"name":"base64Proposal","type":"string","internalType":"string"},{"name":"serverURL","type":"string","internalType":"string"},{"name":"signature","type":"bytes","internalType":"bytes"}],"outputs":[{"name":"requestID","type":"bytes32","internalType":"bytes32"}],"stateMutability":"nonpayable"},{"type":"function","name":"createPrivateProposalRequest","inputs":[{"name":"projectId","type":"bytes32","internalType":"bytes32"},{"name":"privateSolverAddress","type":"address","internalType":"address"},{"name":"base64RecParam","type":"string","internalType":"string"},{"name":"serverURL","type":"string","internalType":"string"}],"outputs":[{"name":"requestID","type":"bytes32","internalType":"bytes32"}],"stateMutability":"nonpayable"},{"type":"function","name":"createProjectID","inputs":[],"outputs":[{"name":"projectId","type":"bytes32","internalType":"bytes32"}],"stateMutability":"nonpayable"},{"type":"function","name":"createProjectIDAndDeploymentRequest","inputs":[{"name":"projectId","type":"bytes32","internalType":"bytes32"},{"name":"base64Proposal","type":"string","internalType":"string"},{"name":"serverURL","type":"string","internalType":"string"}],"outputs":[{"name":"requestID","type":"bytes32","internalType":"bytes32"}],"stateMutability":"nonpayable"},{"type":"function","name":"createProjectIDAndDeploymentRequestWithSig","inputs":[{"name":"projectId","type":"bytes32","internalType":"bytes32"},{"name":"base64Proposal","type":"string","internalType":"string"},{"name":"serverURL","type":"string","internalType":"string"},{"name":"signature","type":"bytes","internalType":"bytes"}],"outputs":[{"name":"requestID","type":"bytes32","internalType":"bytes32"}],"stateMutability":"nonpayable"},{"type":"function","name":"createProjectIDAndPrivateDeploymentRequest","inputs":[{"name":"projectId","type":"bytes32","internalType":"bytes32"},{"name":"base64Proposal","type":"string","internalType":"string"},{"name":"privateWorkerAddress","type":"address","internalType":"address"},{"name":"serverURL","type":"string","internalType":"string"}],"outputs":[{"name":"requestID","type":"bytes32","internalType":"bytes32"}],"stateMutability":"nonpayable"},{"type":"function","name":"createProjectIDAndPrivateDeploymentRequestWithSig","inputs":[{"name":"projectId","type":"bytes32","internalType":"bytes32"},{"name":"base64Proposal","type":"string","internalType":"string"},{"name":"privateWorkerAddress","type":"address","internalType":"address"},{"name":"serverURL","type":"string","internalType":"string"},{"name":"signature","type":"bytes","internalType":"bytes"}],"outputs":[{"name":"requestID","type":"bytes32","internalType":"bytes32"}],"stateMutability":"nonpayable"},{"type":"function","name":"createProjectIDAndProposalRequest","inputs":[{"name":"projectId","type":"bytes32","internalType":"bytes32"},{"name":"base64RecParam","type":"string","internalType":"string"},{"name":"serverURL","type":"string","internalType":"string"}],"outputs":[{"name":"requestID","type":"bytes32","internalType":"bytes32"}],"stateMutability":"nonpayable"},{"type":"function","name":"createProjectIDAndProposalRequestWithSig","inputs":[{"name":"projectId","type":"bytes32","internalType":"bytes32"},{"name":"base64RecParam","type":"string","internalType":"string"},{"name":"serverURL","type":"string","internalType":"string"},{"name":"signature","type":"bytes","internalType":"bytes"}],"outputs":[{"name":"requestID","type":"bytes32","internalType":"bytes32"}],"stateMutability":"nonpayable"},{"type":"function","name":"createProjectIdAndPrivateDeploymentWithConfig","inputs":[{"name":"projectId","type":"bytes32","internalType":"bytes32"},{"name":"base64Proposal","type":"string","internalType":"string"},{"name":"privateWorkerAddress","type":"address","internalType":"address"},{"name":"serverURL","type":"string","internalType":"string"}],"outputs":[{"name":"requestID","type":"bytes32","internalType":"bytes32"}],"stateMutability":"nonpayable"},{"type":"function","name":"createProposalRequest","inputs":[{"name":"projectId","type":"bytes32","internalType":"bytes32"},{"name":"base64RecParam","type":"string","internalType":"string"},{"name":"serverURL","type":"string","internalType":"string"}],"outputs":[{"name":"requestID","type":"bytes32","internalType":"bytes32"}],"stateMutability":"nonpayable"},{"type":"function","name":"createProposalRequestWithSig","inputs":[{"name":"projectId","type":"bytes32","internalType":"bytes32"},{"name":"base64RecParam","type":"string","internalType":"string"},{"name":"serverURL","type":"string","internalType":"string"},{"name":"signature","type":"bytes","internalType":"bytes"}],"outputs":[{"name":"requestID","type":"bytes32","internalType":"bytes32"}],"stateMutability":"nonpayable"},{"type":"function","name":"deploymentIdList","inputs":[{"name":"","type":"bytes32","internalType":"bytes32"},{"name":"","type":"uint256","internalType":"uint256"}],"outputs":[{"name":"","type":"bytes32","internalType":"bytes32"}],"stateMutability":"view"},{"type":"function","name":"dummyAddress","inputs":[],"outputs":[{"name":"","type":"address","internalType":"address"}],"stateMutability":"view"},{"type":"function","name":"eip712Domain","inputs":[],"outputs":[{"name":"fields","type":"bytes1","internalType":"bytes1"},{"name":"name","type":"string","internalType":"string"},{"name":"version","type":"string","internalType":"string"},{"name":"chainId","type":"uint256","internalType":"uint256"},{"name":"verifyingContract","type":"address","internalType":"address"},{"name":"salt","type":"bytes32","internalType":"bytes32"},{"name":"extensions","type":"uint256[]","internalType":"uint256[]"}],"stateMutability":"view"},{"type":"function","name":"factor","inputs":[],"outputs":[{"name":"","type":"uint256","internalType":"uint256"}],"stateMutability":"view"},{"type":"function","name":"getAddress","inputs":[],"outputs":[{"name":"","type":"address","internalType":"address"}],"stateMutability":"view"},{"type":"function","name":"getDeploymentProof","inputs":[{"name":"requestID","type":"bytes32","internalType":"bytes32"}],"outputs":[{"name":"","type":"string","internalType":"string"}],"stateMutability":"view"},{"type":"function","name":"getDeploymentStatus","inputs":[{"name":"requestID","type":"bytes32","internalType":"bytes32"}],"outputs":[{"name":"","type":"uint8","internalType":"enum Blueprint.Status"},{"name":"","type":"address","internalType":"address"}],"stateMutability":"view"},{"type":"function","name":"getEIP712ContractAddress","inputs":[],"outputs":[{"name":"","type":"address","internalType":"address"}],"stateMutability":"view"},{"type":"function","name":"getLatestDeploymentRequestID","inputs":[{"name":"addr","type":"address","internalType":"address"}],"outputs":[{"name":"","type":"bytes32","internalType":"bytes32"}],"stateMutability":"view"},{"type":"function","name":"getLatestProposalRequestID","inputs":[{"name":"addr","type":"address","internalType":"address"}],"outputs":[{"name":"","type":"bytes32","internalType":"bytes32"}],"stateMutability":"view"},{"type":"function","name":"getLatestUserProjectID","inputs":[{"name":"addr","type":"address","internalType":"address"}],"outputs":[{"name":"","type":"bytes32","internalType":"bytes32"}],"stateMutability":"view"},{"type":"function","name":"getProjectInfo","inputs":[{"name":"projectId","type":"bytes32","internalType":"bytes32"}],"outputs":[{"name":"","type":"address","internalType":"address"},{"name":"","type":"bytes32","internalType":"bytes32"},{"name":"","type":"bytes32[]","internalType":"bytes32[]"}],"stateMutability":"view"},{"type":"function","name":"getReputation","inputs":[{"name":"addr","type":"address","internalType":"address"}],"outputs":[{"name":"","type":"uint256","internalType":"uint256"}],"stateMutability":"view"},{"type":"function","name":"getRequestDeploymentDigest","inputs":[{"name":"projectId","type":"bytes32","internalType":"bytes32"},{"name":"base64RecParam","type":"string","internalType":"string"},{"name":"serverURL","type":"string","internalType":"string"}],"outputs":[{"name":"","type":"bytes32","internalType":"bytes32"}],"stateMutability":"view"},{"type":"function","name":"getRequestProposalDigest","inputs":[{"name":"projectId","type":"bytes32","internalType":"bytes32"},{"name":"base64RecParam","type":"string","internalType":"string"},{"name":"serverURL","type":"string","internalType":"string"}],"outputs":[{"name":"","type":"bytes32","internalType":"bytes32"}],"stateMutability":"view"},{"type":"function","name":"getSignerAddress","inputs":[{"name":"hash","type":"bytes32","internalType":"bytes32"},{"name":"signature","type":"bytes","internalType":"bytes"}],"outputs":[{"name":"","type":"address","internalType":"address"}],"stateMutability":"pure"},{"type":"function","name":"getWorkerAddresses","inputs":[],"outputs":[{"name":"","type":"address[]","internalType":"address[]"}],"stateMutability":"view"},{"type":"function","name":"getWorkerPublicKey","inputs":[{"name":"workerAddress","type":"address","internalType":"address"}],"outputs":[{"name":"publicKey","type":"bytes","internalType":"bytes"}],"stateMutability":"view"},{"type":"function","name":"initialize","inputs":[],"outputs":[],"stateMutability":"nonpayable"},{"type":"function","name":"latestDeploymentRequestID","inputs":[{"name":"","type":"address","internalType":"address"}],"outputs":[{"name":"","type":"bytes32","internalType":"bytes32"}],"stateMutability":"view"},{"type":"function","name":"latestProjectID","inputs":[{"name":"","type":"address","internalType":"address"}],"outputs":[{"name":"","type":"bytes32","internalType":"bytes32"}],"stateMutability":"view"},{"type":"function","name":"latestProposalRequestID","inputs":[{"name":"","type":"address","internalType":"address"}],"outputs":[{"name":"","type":"bytes32","internalType":"bytes32"}],"stateMutability":"view"},{"type":"function","name":"owner","inputs":[],"outputs":[{"name":"","type":"address","internalType":"address"}],"stateMutability":"view"},{"type":"function","name":"proxiableUUID","inputs":[],"outputs":[{"name":"","type":"bytes32","internalType":"bytes32"}],"stateMutability":"view"},{"type":"function","name":"renounceOwnership","inputs":[],"outputs":[],"stateMutability":"nonpayable"},{"type":"function","name":"requestDeploymentStatus","inputs":[{"name":"","type":"bytes32","internalType":"bytes32"}],"outputs":[{"name":"status","type":"uint8","internalType":"enum Blueprint.Status"},{"name":"deployWorkerAddr","type":"address","internalType":"address"}],"stateMutability":"view"},{"type":"function","name":"setWorkerPublicKey","inputs":[{"name":"publicKey","type":"bytes","internalType":"bytes"}],"outputs":[],"stateMutability":"nonpayable"},{"type":"function","name":"solverReputation","inputs":[{"name":"","type":"address","internalType":"address"}],"outputs":[{"name":"","type":"uint256","internalType":"uint256"}],"stateMutability":"view"},{"type":"function","name":"submitDeploymentRequest","inputs":[{"name":"projectId","type":"bytes32","internalType":"bytes32"},{"name":"requestID","type":"bytes32","internalType":"bytes32"}],"outputs":[{"name":"isAccepted","type":"bool","internalType":"bool"}],"stateMutability":"nonpayable"},{"type":"function","name":"submitProofOfDeployment","inputs":[{"name":"projectId","type":"bytes32","internalType":"bytes32"},{"name":"requestID","type":"bytes32","internalType":"bytes32"},{"name":"proofBase64","type":"string","internalType":"string"}],"outputs":[],"stateMutability":"nonpayable"},{"type":"function","name":"totalDeploymentRequest","inputs":[],"outputs":[{"name":"","type":"uint256","internalType":"uint256"}],"stateMutability":"view"},{"type":"function","name":"totalProposalRequest","inputs":[],"outputs":[{"name":"","type":"uint256","internalType":"uint256"}],"stateMutability":"view"},{"type":"function","name":"transferOwnership","inputs":[{"name":"newOwner","type":"address","internalType":"address"}],"outputs":[],"stateMutability":"nonpayable"},{"type":"function","name":"updateWorkerDeploymentConfig","inputs":[{"name":"projectId","type":"bytes32","internalType":"bytes32"},{"name":"requestID","type":"bytes32","internalType":"bytes32"},{"name":"updatedBase64Config","type":"string","internalType":"string"}],"outputs":[],"stateMutability":"nonpayable"},{"type":"function","name":"upgradeProject","inputs":[{"name":"projectId","type":"bytes32","internalType":"bytes32"}],"outputs":[],"stateMutability":"nonpayable"},{"type":"function","name":"upgradeToAndCall","inputs":[{"name":"newImplementation","type":"address","internalType":"address"},{"name":"data","type":"bytes","internalType":"bytes"}],"outputs":[],"stateMutability":"payable"},{"type":"function","name":"workerReputation","inputs":[{"name":"","type":"address","internalType":"address"}],"outputs":[{"name":"","type":"uint256","internalType":"uint256"}],"stateMutability":"view"},{"type":"event","name":"AcceptDeployment","inputs":[{"name":"projectID","type":"bytes32","indexed":true,"internalType":"bytes32"},{"name":"requestID","type":"bytes32","indexed":true,"internalType":"bytes32"},{"name":"workerAddress","type":"address","indexed":true,"internalType":"address"}],"anonymous":false},{"type":"event","name":"CreateProjectID","inputs":[{"name":"projectID","type":"bytes32","indexed":true,"internalType":"bytes32"},{"name":"walletAddress","type":"address","indexed":false,"internalType":"address"}],"anonymous":false},{"type":"event","name":"EIP712DomainChanged","inputs":[],"anonymous":false},{"type":"event","name":"GeneratedProofOfDeployment","inputs":[{"name":"projectID","type":"bytes32","indexed":true,"internalType":"bytes32"},{"name":"requestID","type":"bytes32","indexed":true,"internalType":"bytes32"},{"name":"base64DeploymentProof","type":"string","indexed":false,"internalType":"string"}],"anonymous":false},{"type":"event","name":"Initialized","inputs":[{"name":"version","type":"uint64","indexed":false,"internalType":"uint64"}],"anonymous":false},{"type":"event","name":"OwnershipTransferred","inputs":[{"name":"previousOwner","type":"address","indexed":true,"internalType":"address"},{"name":"newOwner","type":"address","indexed":true,"internalType":"address"}],"anonymous":false},{"type":"event","name":"RequestDeployment","inputs":[{"name":"projectID","type":"bytes32","indexed":true,"internalType":"bytes32"},{"name":"walletAddress","type":"address","indexed":false,"internalType":"address"},{"name":"solverAddress","type":"address","indexed":false,"internalType":"address"},{"name":"requestID","type":"bytes32","indexed":true,"internalType":"bytes32"},{"name":"base64Proposal","type":"string","indexed":false,"internalType":"string"},{"name":"serverURL","type":"string","indexed":false,"internalType":"string"}],"anonymous":false},{"type":"event","name":"RequestPrivateDeployment","inputs":[{"name":"projectID","type":"bytes32","indexed":true,"internalType":"bytes32"},{"name":"walletAddress","type":"address","indexed":false,"internalType":"address"},{"name":"privateWorkerAddress","type":"address","indexed":false,"internalType":"address"},{"name":"solverAddress","type":"address","indexed":false,"internalType":"address"},{"name":"requestID","type":"bytes32","indexed":true,"internalType":"bytes32"},{"name":"base64Proposal","type":"string","indexed":false,"internalType":"string"},{"name":"serverURL","type":"string","indexed":false,"internalType":"string"}],"anonymous":false},{"type":"event","name":"RequestPrivateProposal","inputs":[{"name":"projectID","type":"bytes32","indexed":true,"internalType":"bytes32"},{"name":"walletAddress","type":"address","indexed":false,"internalType":"address"},{"name":"privateSolverAddress","type":"address","indexed":false,"internalType":"address"},{"name":"requestID","type":"bytes32","indexed":true,"internalType":"bytes32"},{"name":"base64RecParam","type":"string","indexed":false,"internalType":"string"},{"name":"serverURL","type":"string","indexed":false,"internalType":"string"}],"anonymous":false},{"type":"event","name":"RequestProposal","inputs":[{"name":"projectID","type":"bytes32","indexed":true,"internalType":"bytes32"},{"name":"walletAddress","type":"address","indexed":false,"internalType":"address"},{"name":"requestID","type":"bytes32","indexed":true,"internalType":"bytes32"},{"name":"base64RecParam","type":"string","indexed":false,"internalType":"string"},{"name":"serverURL","type":"string","indexed":false,"internalType":"string"}],"anonymous":false},{"type":"event","name":"UpdateDeploymentConfig","inputs":[{"name":"projectID","type":"bytes32","indexed":true,"internalType":"bytes32"},{"name":"requestID","type":"bytes32","indexed":true,"internalType":"bytes32"},{"name":"workerAddress","type":"address","indexed":false,"internalType":"address"},{"name":"base64Config","type":"string","indexed":false,"internalType":"string"}],"anonymous":false},{"type":"event","name":"Upgraded","inputs":[{"name":"implementation","type":"address","indexed":true,"internalType":"address"}],"anonymous":false},{"type":"error","name":"AddressEmptyCode","inputs":[{"name":"target","type":"address","internalType":"address"}]},{"type":"error","name":"ECDSAInvalidSignature","inputs":[]},{"type":"error","name":"ECDSAInvalidSignatureLength","inputs":[{"name":"length","type":"uint256","internalType":"uint256"}]},{"type":"error","name":"ECDSAInvalidSignatureS","inputs":[{"name":"s","type":"bytes32","internalType":"bytes32"}]},{"type":"error","name":"ERC1967InvalidImplementation","inputs":[{"name":"implementation","type":"address","internalType":"address"}]},{"type":"error","name":"ERC1967NonPayable","inputs":[]},{"type":"error","name":"FailedCall","inputs":[]},{"type":"error","name":"InvalidInitialization","inputs":[]},{"type":"error","name":"NotInitializing","inputs":[]},{"type":"error","name":"OwnableInvalidOwner","inputs":[{"name":"owner","type":"address","internalType":"address"}]},{"type":"error","name":"OwnableUnauthorizedAccount","inputs":[{"name":"account","type":"address","internalType":"address"}]},{"type":"error","name":"UUPSUnauthorizedCallContext","inputs":[]},{"type":"error","name":"UUPSUnsupportedProxiableUUID","inputs":[{"name":"slot","type":"bytes32","internalType":"bytes32"}]}],"bytecode":{"object":"0x60a0604052306080523480156012575f5ffd5b50608051613fb36100395f395f81816121b4015281816121dd015261231c0152613fb35ff3fe608060405260043610610371575f3560e01c806384717e90116101c8578063c03044f3116100fd578063e128fced1161009d578063f11d36751161006d578063f11d367514610b08578063f2fde38b14610b3c578063fcc8293914610b5b578063ffa1ad7414610b99575f5ffd5b8063e128fced14610a61578063e2ec525c14610a80578063e3faad9414610a9f578063ed3c95c014610add575f5ffd5b8063c68a7e32116100d8578063c68a7e32146109c1578063ce1b4ff5146109e0578063d2a0c27514610a14578063e056683314610a33575f5ffd5b8063c03044f31461096f578063c3a1ae271461098e578063c4845f5f146109a2575f5ffd5b8063a6cda35111610168578063b83b431511610143578063b83b4315146108ce578063b9bb7135146108ed578063bae7e16c14610921578063be539d3f14610940575f5ffd5b8063a6cda3511461086a578063a97bedfe14610889578063ad3cb1cc1461089e575f5ffd5b8063924b2a2a116101a3578063924b2a2a146107d9578063934e218c146107f85780639a7d9ce2146108175780639c89a0e214610836575f5ffd5b806384717e901461075757806384b0196e146107765780638da5cb5b1461079d575f5ffd5b80634ce354f0116102a957806362bd459c116102495780637ce53f49116102195780637ce53f49146106e45780638129fc1c14610703578063822c737a1461071757806383c49efa14610742575f5ffd5b806362bd459c1461065f578063715018a61461067e5780637371498c146106925780637b31d6f6146106b1575f5ffd5b806354f703f81161028457806354f703f8146105e15780635516fe1d146105f657806356ed87521461061557806359617ef714610640575f5ffd5b80634ce354f01461059b5780634f1ef286146105ba57806352d1902d146105cd575f5ffd5b806331f4f12d1161031457806339c12636116102ef57806339c12636146105105780634b6680de146105315780634bcaa6261461055d5780634caafee21461057c575f5ffd5b806331f4f12d146104a85780633550753c146104db57806338cc4831146104fc575f5ffd5b8063094705361161034f57806309470536146104095780630f7d8e39146104565780632943f3eb146104755780632ae189d814610494575f5ffd5b806305b3831214610375578063078ebeae146103a557806308a101b8146103de575b5f5ffd5b348015610380575f5ffd5b506103885f81565b6040516001600160a01b0390911681526020015b60405180910390f35b3480156103b0575f5ffd5b506103d06103bf3660046131f1565b60056020525f908152604090205481565b60405190815260200161039c565b3480156103e9575f5ffd5b506103d06103f83660046131f1565b60086020525f908152604090205481565b348015610414575f5ffd5b5061044861042336600461320a565b5f9081526009602052604090205460ff8116916101009091046001600160a01b031690565b60405161039c929190613235565b348015610461575f5ffd5b50610388610470366004613322565b610bad565b348015610480575f5ffd5b506103d061048f366004613365565b610c13565b34801561049f575f5ffd5b506103d0610c46565b3480156104b3575f5ffd5b506103d07f60a8eecec858932ab2ff591a4ad5829a185228029a1c74d3dfb34bf17b42561681565b3480156104e6575f5ffd5b506104fa6104f536600461320a565b610c9a565b005b348015610507575f5ffd5b50610388610d18565b34801561051b575f5ffd5b50610524610d2f565b60405161039c91906133fa565b34801561053c575f5ffd5b5061055061054b36600461320a565b610d8f565b60405161039c9190613473565b348015610568575f5ffd5b506104fa610577366004613485565b610e2e565b348015610587575f5ffd5b506105506105963660046131f1565b610eaf565b3480156105a6575f5ffd5b506103d06105b5366004613365565b610ed5565b6104fa6105c83660046134f1565b610efe565b3480156105d8575f5ffd5b506103d0610f1d565b3480156105ec575f5ffd5b506103d060015481565b348015610601575f5ffd5b506103d0610610366004613365565b610f38565b348015610620575f5ffd5b506103d061062f3660046131f1565b60066020525f908152604090205481565b34801561064b575f5ffd5b506103d061065a366004613525565b610f6a565b34801561066a575f5ffd5b506103d0610679366004613562565b610fc1565b348015610689575f5ffd5b506104fa61104a565b34801561069d575f5ffd5b506103d06106ac366004613525565b61105d565b3480156106bc575f5ffd5b506103d07fe5726589ac93743b6d2436bf498a0c2b0f4c8e021b2693576ae35457620d338d81565b3480156106ef575f5ffd5b506103d06106fe3660046135cd565b611075565b34801561070e575f5ffd5b506104fa611083565b348015610722575f5ffd5b506103d06107313660046131f1565b60046020525f908152604090205481565b34801561074d575f5ffd5b506103d060035481565b348015610762575f5ffd5b506103d0610771366004613562565b611251565b348015610781575f5ffd5b5061078a611266565b60405161039c9796959493929190613631565b3480156107a8575f5ffd5b507f9016d09d72d40fdae2fd8ceac6b6234c7706214fd39c1cd1e609a0528c199300546001600160a01b0316610388565b3480156107e4575f5ffd5b506103d06107f3366004613562565b61130f565b348015610803575f5ffd5b506103d06108123660046136c7565b611326565b348015610822575f5ffd5b506103d061083136600461376c565b61135c565b348015610841575f5ffd5b506103d06108503660046131f1565b6001600160a01b03165f9081526007602052604090205490565b348015610875575f5ffd5b506103d06108843660046137d1565b611385565b348015610894575f5ffd5b506103d060025481565b3480156108a9575f5ffd5b50610550604051806040016040528060058152602001640352e302e360dc1b81525081565b3480156108d9575f5ffd5b506103d06108e83660046135cd565b6115df565b3480156108f8575f5ffd5b506103d06109073660046131f1565b6001600160a01b03165f9081526005602052604090205490565b34801561092c575f5ffd5b506103d061093b3660046138d5565b611677565b34801561094b575f5ffd5b5061095f61095a366004613907565b611690565b604051901515815260200161039c565b34801561097a575f5ffd5b506103d0610989366004613562565b61189c565b348015610999575f5ffd5b506103886118f9565b3480156109ad575f5ffd5b506103d06109bc366004613562565b611907565b3480156109cc575f5ffd5b506104fa6109db366004613927565b611915565b3480156109eb575f5ffd5b506103d06109fa3660046131f1565b6001600160a01b03165f9081526006602052604090205490565b348015610a1f575f5ffd5b506103d0610a2e366004613907565b611b17565b348015610a3e575f5ffd5b50610a52610a4d36600461320a565b611b42565b60405161039c9392919061395c565b348015610a6c575f5ffd5b506104fa610a7b366004613927565b611c0a565b348015610a8b575f5ffd5b506103d0610a9a3660046139ab565b611dc7565b348015610aaa575f5ffd5b50610550604051806040016040528060138152602001726170702e6372657374616c2e6e6574776f726b60681b81525081565b348015610ae8575f5ffd5b506103d0610af73660046131f1565b60076020525f908152604090205481565b348015610b13575f5ffd5b506103d0610b223660046131f1565b6001600160a01b03165f9081526004602052604090205490565b348015610b47575f5ffd5b506104fa610b563660046131f1565b611dfe565b348015610b66575f5ffd5b50610448610b7536600461320a565b60096020525f908152604090205460ff81169061010090046001600160a01b031682565b348015610ba4575f5ffd5b50610550611e3b565b5f5f610bb98484611ec6565b90506001600160a01b038116610c0a5760405162461bcd60e51b8152602060048201526011602482015270496e76616c6964207369676e617475726560781b60448201526064015b60405180910390fd5b90505b92915050565b5f5f610c2086868661189c565b90505f610c2d8285610bad565b9050610c3b81888888611eee565b979650505050505050565b604080514260208201526bffffffffffffffffffffffff193360601b16918101919091524660548201525f90607401604051602081830303815290604052805190602001209050610c978133611f33565b90565b5f818152600e60205260409020548190151580610ccc57505f818152600d60205260409020546001600160a01b031615155b610ce85760405162461bcd60e51b8152600401610c0190613a5f565b505f908152600e6020526040812060018101829055600281019190915560030180546001600160a01b0319169055565b5f5f610d22611266565b5090979650505050505050565b60606010805480602002602001604051908101604052809291908181526020018280548015610d8557602002820191905f5260205f20905b81546001600160a01b03168152600190910190602001808311610d67575b5050505050905090565b5f818152600a60205260409020805460609190610dab90613a96565b80601f0160208091040260200160405190810160405280929190818152602001828054610dd790613a96565b8015610e225780601f10610df957610100808354040283529160200191610e22565b820191905f5260205f20905b815481529060010190602001808311610e0557829003601f168201915b50505050509050919050565b335f9081526011602052604090208054610e4790613a96565b90505f03610e9157601080546001810182555f919091527f1b6847dc741a1b0cd08d278845f9d819d87b734759afb55fe2de5cb82a9ae6720180546001600160a01b031916331790555b335f908152601160205260409020610eaa828483613b19565b505050565b6001600160a01b0381165f908152601160205260409020805460609190610dab90613a96565b5f5f610ee2868686610fc1565b90505f610eef8285610bad565b9050610c3b8188885f89612082565b610f066121a9565b610f0f8261224d565b610f198282612255565b5050565b5f610f26612311565b505f516020613f3e5f395f51905f5290565b5f5f610f4586868661189c565b90505f610f528285610bad565b9050610f5e8782611f33565b610c3b81888888611eee565b5f610f78338686868661235a565b905080857f1eb4ec68b7c7cf7850d18fd32bdd1cb9e2c9b7e1de32211eef093af3cf262aee33878787604051610fb19493929190613bd2565b60405180910390a3949350505050565b5f5f7f60a8eecec858932ab2ff591a4ad5829a185228029a1c74d3dfb34bf17b425616858580519060200120858051906020012060405160200161101e949392919093845260208401929092526040830152606082015260800190565b60405160208183030381529060405280519060200120905061103f81612556565b9150505b9392505050565b611052612582565b61105b5f6125dd565b565b5f61106c3386865f878761264d565b95945050505050565b5f61106c3386868686612082565b7ff0c57e16840df040f15088dc2f81fe391c3923bec73e23a9662efc9c229c6a00805460039190600160401b900460ff16806110cc575080546001600160401b03808416911610155b156110ea5760405163f92ee8a960e01b815260040160405180910390fd5b805468ffffffffffffffffff19166001600160401b03831617600160401b178155611114336127c1565b6040805180820190915260058152640332e302e360dc1b60208201525f9061113c9082613c0f565b506111f9604051806040016040528060138152602001726170702e6372657374616c2e6e6574776f726b60681b8152505f805461117890613a96565b80601f01602080910402602001604051908101604052809291908181526020018280546111a490613a96565b80156111ef5780601f106111c6576101008083540402835291602001916111ef565b820191905f5260205f20905b8154815290600101906020018083116111d257829003601f168201915b50505050506127d2565b6112016127e4565b805468ff0000000000000000191681556040516001600160401b03831681527fc7f505b2f371ae2175ee4913f4499e1f2633a7b5936321eed1cdaeb6115181d29060200160405180910390a15050565b5f61125e33858585611eee565b949350505050565b5f60608082808083815f516020613f1e5f395f51905f52805490915015801561129157506001810154155b6112d55760405162461bcd60e51b81526020600482015260156024820152741152540dcc4c8e88155b9a5b9a5d1a585b1a5e9959605a1b6044820152606401610c01565b6112dd6127ec565b6112e56128ac565b604080515f80825260208201909252600f60f81b9c939b5091995046985030975095509350915050565b5f61131a8433611f33565b61125e33858585611eee565b5f5f611333878686610fc1565b90505f6113408285610bad565b90506113508189895f8a8a61264d565b98975050505050505050565b5f5f611369878786610fc1565b90505f6113768285610bad565b90506113508189898989612082565b5f6001600160a01b0385166113dc5760405162461bcd60e51b815260206004820152601a60248201527f736f6c76657241646472657373206973206e6f742076616c69640000000000006044820152606401610c01565b82515f0361142c5760405162461bcd60e51b815260206004820152601e60248201527f62617365363450726f706f73616c7320617272617920697320656d70747900006044820152606401610c01565b5f5b83518110156115aa575f5f611461338a8a8a8a888151811061145257611452613cc9565b60200260200101518a896128ea565b90925090508315611491575f848152600f60209081526040822080546001810182559083529120018290556114b5565b5f818152600f60209081526040822080546001810182559083529120018290559250825b6001600160a01b0387166115205781897fcdde0392731ff1ddcc3295ee84db8db4a9ad3d8f34056867af8c9f3b2920d44e338b8a88815181106114fa576114fa613cc9565b60200260200101518a6040516115139493929190613bd2565b60405180910390a36115a0565b81897f26e5b75b543be1cdad2907ba50a99eeb5c3a05381eee18d5b6a565b2bbccd1ba338a8c8b898151811061155857611558613cc9565b60200260200101518b604051611572959493929190613cdd565b60405180910390a3866001600160a01b0316828a5f516020613f5e5f395f51905f5260405160405180910390a45b505060010161142e565b50825160035f8282546115bd9190613d36565b90915550505f958652600e602052604090952060020185905550929392505050565b5f6115ec85858585611075565b5f818152600960209081526040918290205482516101009091046001600160a01b03168152908101829052601f918101919091527f456e6372797074656420636f6e66696720666f72206465706c6f796d656e74006060820152909150819086907fce8f8849a89ebf447425479c86ccdc17f11697958b4bca671fcdf65bc3012c2190608001610fb1565b5f61168633878787878761264d565b9695505050505050565b5f828152600e602052604081205483901515806116c257505f818152600d60205260409020546001600160a01b031615155b6116de5760405162461bcd60e51b8152600401610c0190613a5f565b5f8381526009602052604081205460ff16600581111561170057611700613221565b0361171d5760405162461bcd60e51b8152600401610c0190613d49565b60025f8481526009602052604090205460ff16600581111561174157611741613221565b036117c25760405162461bcd60e51b815260206004820152604560248201527f72657175657374494420616c7265616479207069636b656420627920616e6f7460448201527f68657220776f726b65722c20747279206120646966666572656e742072657175606482015264195cdd125160da1b608482015260a401610c01565b60055f8481526009602052604090205460ff1660058111156117e6576117e6613221565b036118415760405162461bcd60e51b815260206004820152602560248201527f7265717565737449442068617320616c7265616479207375626d697474656420604482015264383937b7b360d91b6064820152608401610c01565b5f83815260096020526040808220805460026101003381026001600160a81b03199093169290921717918290559151600195509190046001600160a01b031691859187915f516020613f5e5f395f51905f5291a45092915050565b5f5f7fe5726589ac93743b6d2436bf498a0c2b0f4c8e021b2693576ae35457620d338d858580519060200120858051906020012060405160200161101e949392919093845260208401929092526040830152606082015260800190565b5f611902610d18565b905090565b5f61125e3385855f86612082565b5f838152600e6020526040902054839015158061194757505f818152600d60205260409020546001600160a01b031615155b6119635760405162461bcd60e51b8152600401610c0190613a5f565b5f8381526009602052604081205460ff16600581111561198557611985613221565b036119a25760405162461bcd60e51b8152600401610c0190613d49565b5f8251116119f25760405162461bcd60e51b815260206004820152601c60248201527f75706461746564426173653634436f6e66696720697320656d707479000000006044820152606401610c01565b60015f8481526009602052604090205460ff166005811115611a1657611a16613221565b03611a745760405162461bcd60e51b815260206004820152602860248201527f726571756573744944206973206e6f74207069636b656420757020627920616e6044820152673c903bb7b935b2b960c11b6064820152608401610c01565b60055f8481526009602052604090205460ff166005811115611a9857611a98613221565b03611ab6575f838152600960205260409020805460ff191660021790555b5f8381526009602052604090819020549051849186917fce8f8849a89ebf447425479c86ccdc17f11697958b4bca671fcdf65bc3012c2191611b09916101009091046001600160a01b0316908790613d80565b60405180910390a350505050565b600f602052815f5260405f208181548110611b30575f80fd5b905f5260205f20015f91509150505481565b5f818152600e6020526040812054819060609084908303611b755760405162461bcd60e51b8152600401610c0190613a5f565b5f858152600e60209081526040808320600201548352600f825280832080548251818502810185019093528083529192909190830182828015611bd557602002820191905f5260205f20905b815481526020019060010190808311611bc1575b5050505f9889525050600e602052604090962060038101546001909101546001600160a01b0390911697909695509350505050565b5f838152600e60205260409020548390151580611c3c57505f818152600d60205260409020546001600160a01b031615155b611c585760405162461bcd60e51b8152600401610c0190613a5f565b5f8381526009602052604081205460ff166005811115611c7a57611c7a613221565b03611c975760405162461bcd60e51b8152600401610c0190613d49565b5f8381526009602052604090205461010090046001600160a01b03163314611cf85760405162461bcd60e51b815260206004820152601460248201527357726f6e6720776f726b6572206164647265737360601b6044820152606401610c01565b60055f8481526009602052604090205460ff166005811115611d1c57611d1c613221565b03611d695760405162461bcd60e51b815260206004820152601760248201527f416c7265616479207375626d69747465642070726f6f660000000000000000006044820152606401610c01565b5f838152600960209081526040808320805460ff19166005179055600a9091529020611d958382613c0f565b5082847fddb29833db778500c94a5880f1a8ad549d91ec7c80faee2b3735bda881fa6d9884604051611b099190613473565b5f5f611dd4888686610fc1565b90505f611de18285610bad565b9050611df1818a8a8a8a8a61264d565b9998505050505050505050565b611e06612582565b6001600160a01b038116611e2f57604051631e4fbdf760e01b81525f6004820152602401610c01565b611e38816125dd565b50565b5f8054611e4790613a96565b80601f0160208091040260200160405190810160405280929190818152602001828054611e7390613a96565b8015611ebe5780601f10611e9557610100808354040283529160200191611ebe565b820191905f5260205f20905b815481529060010190602001808311611ea157829003601f168201915b505050505081565b5f5f5f5f611ed48686612ba5565b925092509250611ee48282612bee565b5090949350505050565b5f611efc85855f868661235a565b905080847f660f0cd9ab48b3916970cca5763925f3b8f0e0e158fb9f0f4ae5f71e9605d767878686604051610fb193929190613da3565b5f828152600e6020526040902054829015611f905760405162461bcd60e51b815260206004820152601860248201527f70726f6a656374496420616c72656164792065786973747300000000000000006044820152606401610c01565b6001600160a01b038216611fd95760405162461bcd60e51b815260206004820152601060248201526f24b73b30b634b2103ab9b2b920b2323960811b6044820152606401610c01565b604080516080810182528481525f602080830182815283850183815260608501848152898552600e845286852086518155925160018401559051600283015551600390910180546001600160a01b0319166001600160a01b03928316179055861680835260068252918490208790559251908152909185917f988dde20b788b20d2f8188ab37bc9419a99761fc4ec19356dc30cfa49b4601dc910160405180910390a250505050565b5f61208d8587611f33565b5f61209d87875f8789885f6128ea565b600380549294509092505f6120b183613dd8565b90915550505f868152600e60209081526040808320600201849055838352600f8252822080546001810182559083529120018290556001600160a01b0384166121385781867fcdde0392731ff1ddcc3295ee84db8db4a9ad3d8f34056867af8c9f3b2920d44e895f898860405161212b9493929190613bd2565b60405180910390a361219f565b81867f26e5b75b543be1cdad2907ba50a99eeb5c3a05381eee18d5b6a565b2bbccd1ba89875f8a89604051612171959493929190613cdd565b60405180910390a3836001600160a01b031682875f516020613f5e5f395f51905f5260405160405180910390a45b5095945050505050565b306001600160a01b037f000000000000000000000000000000000000000000000000000000000000000016148061222f57507f00000000000000000000000000000000000000000000000000000000000000006001600160a01b03166122235f516020613f3e5f395f51905f52546001600160a01b031690565b6001600160a01b031614155b1561105b5760405163703e46dd60e11b815260040160405180910390fd5b611e38612582565b816001600160a01b03166352d1902d6040518163ffffffff1660e01b8152600401602060405180830381865afa9250505080156122af575060408051601f3d908101601f191682019092526122ac91810190613df0565b60015b6122d757604051634c9c8ce360e01b81526001600160a01b0383166004820152602401610c01565b5f516020613f3e5f395f51905f52811461230757604051632a87526960e21b815260048101829052602401610c01565b610eaa8383612ca6565b306001600160a01b037f0000000000000000000000000000000000000000000000000000000000000000161461105b5760405163703e46dd60e11b815260040160405180910390fd5b5f848152600e6020526040812054859015158061238c57505f818152600d60205260409020546001600160a01b031615155b6123a85760405162461bcd60e51b8152600401610c0190613a5f565b5f8351116123ed5760405162461bcd60e51b815260206004820152601260248201527173657276657255524c20697320656d70747960701b6044820152606401610c01565b5f84511161243d5760405162461bcd60e51b815260206004820152601760248201527f626173653634526563506172616d20697320656d7074790000000000000000006044820152606401610c01565b428785466040516020016124549493929190613e1e565b60408051601f1981840301815291815281516020928301205f898152600e909352912060010154909250156124d55760405162461bcd60e51b815260206004820152602160248201527f70726f706f73616c2072657175657374494420616c72656164792065786973746044820152607360f81b6064820152608401610c01565b6001600160a01b0387165f908152600460209081526040808320859055888352600e9091528120600101839055600280549161251083613dd8565b90915550506001600160a01b0385161561219f575f828152600b6020526040902080546001600160a01b0387166001600160a01b03199091161790555095945050505050565b5f610c0d612562612cfb565b8360405161190160f01b8152600281019290925260228201526042902090565b336125b47f9016d09d72d40fdae2fd8ceac6b6234c7706214fd39c1cd1e609a0528c199300546001600160a01b031690565b6001600160a01b03161461105b5760405163118cdaa760e01b8152336004820152602401610c01565b7f9016d09d72d40fdae2fd8ceac6b6234c7706214fd39c1cd1e609a0528c19930080546001600160a01b031981166001600160a01b03848116918217845560405192169182907f8be0079c531659141344cd1fd0a4f28419497f9722a3daafe3b4186f6b6457e0905f90a3505050565b5f6001600160a01b0385166126a45760405162461bcd60e51b815260206004820152601a60248201527f736f6c76657241646472657373206973206e6f742076616c69640000000000006044820152606401610c01565b5f6126b48888888888885f6128ea565b600380549294509092505f6126c883613dd8565b90915550505f878152600e60209081526040808320600201849055838352600f8252822080546001810182559083529120018290556001600160a01b03851661274f5781877fcdde0392731ff1ddcc3295ee84db8db4a9ad3d8f34056867af8c9f3b2920d44e8a8988886040516127429493929190613bd2565b60405180910390a36127b6565b81877f26e5b75b543be1cdad2907ba50a99eeb5c3a05381eee18d5b6a565b2bbccd1ba8a888a8989604051612788959493929190613cdd565b60405180910390a3846001600160a01b031682885f516020613f5e5f395f51905f5260405160405180910390a45b509695505050505050565b6127c9612d04565b611e3881612d4d565b6127da612d04565b610f198282612d55565b61105b612d04565b7fa16a46d94261c7517cc8ff89f61c0ce93598e3c849801011dee649a6a557d10280546060915f516020613f1e5f395f51905f529161282a90613a96565b80601f016020809104026020016040519081016040528092919081815260200182805461285690613a96565b80156128a15780601f10612878576101008083540402835291602001916128a1565b820191905f5260205f20905b81548152906001019060200180831161288457829003601f168201915b505050505091505090565b7fa16a46d94261c7517cc8ff89f61c0ce93598e3c849801011dee649a6a557d10380546060915f516020613f1e5f395f51905f529161282a90613a96565b5f868152600e60205260408120548190889015158061291e57505f818152600d60205260409020546001600160a01b031615155b61293a5760405162461bcd60e51b8152600401610c0190613a5f565b5f85511161297f5760405162461bcd60e51b815260206004820152601260248201527173657276657255524c20697320656d70747960701b6044820152606401610c01565b5f8651116129cf5760405162461bcd60e51b815260206004820152601760248201527f62617365363450726f706f73616c20697320656d7074790000000000000000006044820152606401610c01565b428a87468c6040516020016129e8959493929190613e51565b60408051601f1981840301815291815281516020928301205f8c8152600e90935291206002015490925015612a6b5760405162461bcd60e51b815260206004820152602360248201527f6465706c6f796d656e742072657175657374494420616c72656164792065786960448201526273747360e81b6064820152608401610c01565b428a87468c88604051602001612a8696959493929190613e89565b60408051601f1981840301815291815281516020928301206001600160a01b038d165f908152600590935291208190559250612ac188612db4565b505f60405180604001604052805f6001600160a01b03168a6001600160a01b031614612aee576002612af1565b60015b6005811115612b0257612b02613221565b81526001600160a01b038a166020918201525f868152600990915260409020815181549293508392829060ff19166001836005811115612b4457612b44613221565b02179055506020918201518154610100600160a81b0319166101006001600160a01b0392831602179091555f9b8c52600e9091526040909a2060030180546001600160a01b03191699909a1698909817909855909890975095505050505050565b5f5f5f8351604103612bdc576020840151604085015160608601515f1a612bce88828585612e81565b955095509550505050612be7565b505081515f91506002905b9250925092565b5f826003811115612c0157612c01613221565b03612c0a575050565b6001826003811115612c1e57612c1e613221565b03612c3c5760405163f645eedf60e01b815260040160405180910390fd5b6002826003811115612c5057612c50613221565b03612c715760405163fce698f760e01b815260048101829052602401610c01565b6003826003811115612c8557612c85613221565b03610f19576040516335e2f38360e21b815260048101829052602401610c01565b612caf82612f49565b6040516001600160a01b038316907fbc7cd75a20ee27fd9adebab32041f755214dbc6bffa90cc0225b39da2e5c2d3b905f90a2805115612cf357610eaa8282612fac565b610f19613015565b5f611902613034565b7ff0c57e16840df040f15088dc2f81fe391c3923bec73e23a9662efc9c229c6a0054600160401b900460ff1661105b57604051631afcd79f60e31b815260040160405180910390fd5b611e06612d04565b612d5d612d04565b5f516020613f1e5f395f51905f527fa16a46d94261c7517cc8ff89f61c0ce93598e3c849801011dee649a6a557d102612d968482613c0f565b5060038101612da58382613c0f565b505f8082556001909101555050565b6001600160a01b0381165f90815260076020526040902054600154612dda906006613ec9565b811015612df557600154612dee9082613d36565b9050612e63565b6103e86002541115612e3057600254600154612e12906006613ec9565b612e1c9083613ee0565b612e269190613ef3565b612dee9082613d36565b6103e86001546006612e429190613ec9565b612e4c9083613ee0565b612e569190613ef3565b612e609082613d36565b90505b6001600160a01b039091165f90815260076020526040902081905590565b5f80807f7fffffffffffffffffffffffffffffff5d576e7357a4501ddfe92f46681b20a0841115612eba57505f91506003905082612f3f565b604080515f808252602082018084528a905260ff891692820192909252606081018790526080810186905260019060a0016020604051602081039080840390855afa158015612f0b573d5f5f3e3d5ffd5b5050604051601f1901519150506001600160a01b038116612f3657505f925060019150829050612f3f565b92505f91508190505b9450945094915050565b806001600160a01b03163b5f03612f7e57604051634c9c8ce360e01b81526001600160a01b0382166004820152602401610c01565b5f516020613f3e5f395f51905f5280546001600160a01b0319166001600160a01b0392909216919091179055565b60605f5f846001600160a01b031684604051612fc89190613f12565b5f60405180830381855af49150503d805f8114613000576040519150601f19603f3d011682016040523d82523d5f602084013e613005565b606091505b509150915061106c8583836130a7565b341561105b5760405163b398979f60e01b815260040160405180910390fd5b5f7f8b73c3c69bb8fe3d512ecc4cf759cc79239f7b179b0ffacaa9a75d522b39400f61305e613103565b61306661316b565b60408051602081019490945283019190915260608201524660808201523060a082015260c00160405160208183030381529060405280519060200120905090565b6060826130bc576130b7826131ad565b611043565b81511580156130d357506001600160a01b0384163b155b156130fc57604051639996b31560e01b81526001600160a01b0385166004820152602401610c01565b5080611043565b5f5f516020613f1e5f395f51905f528161311b6127ec565b80519091501561313357805160209091012092915050565b81548015613142579392505050565b7fc5d2460186f7233c927e7db2dcc703c0e500b653ca82273b7bfad8045d85a470935050505090565b5f5f516020613f1e5f395f51905f52816131836128ac565b80519091501561319b57805160209091012092915050565b60018201548015613142579392505050565b8051156131bd5780518082602001fd5b60405163d6bda27560e01b815260040160405180910390fd5b80356001600160a01b03811681146131ec575f5ffd5b919050565b5f60208284031215613201575f5ffd5b611043826131d6565b5f6020828403121561321a575f5ffd5b5035919050565b634e487b7160e01b5f52602160045260245ffd5b604081016006841061325557634e487b7160e01b5f52602160045260245ffd5b9281526001600160a01b039190911660209091015290565b634e487b7160e01b5f52604160045260245ffd5b604051601f8201601f191681016001600160401b03811182821017156132a9576132a961326d565b604052919050565b5f82601f8301126132c0575f5ffd5b8135602083015f5f6001600160401b038411156132df576132df61326d565b50601f8301601f19166020016132f481613281565b915050828152858383011115613308575f5ffd5b828260208301375f92810160200192909252509392505050565b5f5f60408385031215613333575f5ffd5b8235915060208301356001600160401b0381111561334f575f5ffd5b61335b858286016132b1565b9150509250929050565b5f5f5f5f60808587031215613378575f5ffd5b8435935060208501356001600160401b03811115613394575f5ffd5b6133a0878288016132b1565b93505060408501356001600160401b038111156133bb575f5ffd5b6133c7878288016132b1565b92505060608501356001600160401b038111156133e2575f5ffd5b6133ee878288016132b1565b91505092959194509250565b602080825282518282018190525f918401906040840190835b8181101561343a5783516001600160a01b0316835260209384019390920191600101613413565b509095945050505050565b5f81518084528060208401602086015e5f602082860101526020601f19601f83011685010191505092915050565b602081525f6110436020830184613445565b5f5f60208385031215613496575f5ffd5b82356001600160401b038111156134ab575f5ffd5b8301601f810185136134bb575f5ffd5b80356001600160401b038111156134d0575f5ffd5b8560208284010111156134e1575f5ffd5b6020919091019590945092505050565b5f5f60408385031215613502575f5ffd5b61350b836131d6565b915060208301356001600160401b0381111561334f575f5ffd5b5f5f5f5f60808587031215613538575f5ffd5b84359350613548602086016131d6565b925060408501356001600160401b038111156133bb575f5ffd5b5f5f5f60608486031215613574575f5ffd5b8335925060208401356001600160401b03811115613590575f5ffd5b61359c868287016132b1565b92505060408401356001600160401b038111156135b7575f5ffd5b6135c3868287016132b1565b9150509250925092565b5f5f5f5f608085870312156135e0575f5ffd5b8435935060208501356001600160401b038111156135fc575f5ffd5b613608878288016132b1565b935050613617604086016131d6565b915060608501356001600160401b038111156133e2575f5ffd5b60ff60f81b8816815260e060208201525f61364f60e0830189613445565b82810360408401526136618189613445565b606084018890526001600160a01b038716608085015260a0840186905283810360c0850152845180825260208087019350909101905f5b818110156136b6578351835260209384019390920191600101613698565b50909b9a5050505050505050505050565b5f5f5f5f5f60a086880312156136db575f5ffd5b853594506136eb602087016131d6565b935060408601356001600160401b03811115613705575f5ffd5b613711888289016132b1565b93505060608601356001600160401b0381111561372c575f5ffd5b613738888289016132b1565b92505060808601356001600160401b03811115613753575f5ffd5b61375f888289016132b1565b9150509295509295909350565b5f5f5f5f5f60a08688031215613780575f5ffd5b8535945060208601356001600160401b0381111561379c575f5ffd5b6137a8888289016132b1565b9450506137b7604087016131d6565b925060608601356001600160401b0381111561372c575f5ffd5b5f5f5f5f5f60a086880312156137e5575f5ffd5b853594506137f5602087016131d6565b9350613803604087016131d6565b925060608601356001600160401b0381111561381d575f5ffd5b8601601f8101881361382d575f5ffd5b80356001600160401b038111156138465761384661326d565b8060051b61385660208201613281565b9182526020818401810192908101908b841115613871575f5ffd5b6020850192505b838310156138b65782356001600160401b03811115613895575f5ffd5b6138a48d6020838901016132b1565b83525060209283019290910190613878565b9550505050608087013590506001600160401b03811115613753575f5ffd5b5f5f5f5f5f60a086880312156138e9575f5ffd5b853594506138f9602087016131d6565b93506137b7604087016131d6565b5f5f60408385031215613918575f5ffd5b50508035926020909101359150565b5f5f5f60608486031215613939575f5ffd5b833592506020840135915060408401356001600160401b038111156135b7575f5ffd5b6001600160a01b0384168152602080820184905260606040830181905283519083018190525f918401906080840190835b81811015610d2257835183526020938401939092019160010161398d565b5f5f5f5f5f5f60c087890312156139c0575f5ffd5b863595506139d0602088016131d6565b94506139de604088016131d6565b935060608701356001600160401b038111156139f8575f5ffd5b613a0489828a016132b1565b93505060808701356001600160401b03811115613a1f575f5ffd5b613a2b89828a016132b1565b92505060a08701356001600160401b03811115613a46575f5ffd5b613a5289828a016132b1565b9150509295509295509295565b60208082526018908201527f70726f6a656374496420646f6573206e6f742065786973740000000000000000604082015260600190565b600181811c90821680613aaa57607f821691505b602082108103613ac857634e487b7160e01b5f52602260045260245ffd5b50919050565b601f821115610eaa57805f5260205f20601f840160051c81016020851015613af35750805b601f840160051c820191505b81811015613b12575f8155600101613aff565b5050505050565b6001600160401b03831115613b3057613b3061326d565b613b4483613b3e8354613a96565b83613ace565b5f601f841160018114613b75575f8515613b5e5750838201355b5f19600387901b1c1916600186901b178355613b12565b5f83815260208120601f198716915b82811015613ba45786850135825560209485019460019092019101613b84565b5086821015613bc0575f1960f88860031b161c19848701351681555b505060018560011b0183555050505050565b6001600160a01b038581168252841660208201526080604082018190525f90613bfd90830185613445565b8281036060840152610c3b8185613445565b81516001600160401b03811115613c2857613c2861326d565b613c3c81613c368454613a96565b84613ace565b6020601f821160018114613c6e575f8315613c575750848201515b5f19600385901b1c1916600184901b178455613b12565b5f84815260208120601f198516915b82811015613c9d5787850151825560209485019460019092019101613c7d565b5084821015613cba57868401515f19600387901b60f8161c191681555b50505050600190811b01905550565b634e487b7160e01b5f52603260045260245ffd5b6001600160a01b03868116825285811660208301528416604082015260a0606082018190525f90613d1090830185613445565b82810360808401526113508185613445565b634e487b7160e01b5f52601160045260245ffd5b80820180821115610c0d57610c0d613d22565b60208082526018908201527f72657175657374494420646f6573206e6f742065786973740000000000000000604082015260600190565b6001600160a01b03831681526040602082018190525f9061125e90830184613445565b6001600160a01b03841681526060602082018190525f90613dc690830185613445565b82810360408401526116868185613445565b5f60018201613de957613de9613d22565b5060010190565b5f60208284031215613e00575f5ffd5b5051919050565b5f81518060208401855e5f93019283525090919050565b8481526001600160601b03198460601b1660208201525f613e426034830185613e07565b92835250506020019392505050565b8581526001600160601b03198560601b1660208201525f613e756034830186613e07565b938452505060208201526040019392505050565b8681526001600160601b03198660601b1660208201525f613ead6034830187613e07565b9485525050602083019190915260408201526060019392505050565b8082028115828204841417610c0d57610c0d613d22565b81810381811115610c0d57610c0d613d22565b5f82613f0d57634e487b7160e01b5f52601260045260245ffd5b500490565b5f6110438284613e0756fea16a46d94261c7517cc8ff89f61c0ce93598e3c849801011dee649a6a557d100360894a13ba1a3210667c828492db98dca3e2076cc3735a920a3ca505d382bbc065b3b95166dc6cadb255ba57b9623fa09d0519437b43d13dbd0d7f7a5ee9b76a2646970667358221220ade6b64e701f0833182da4d12e67193c6404ce8438fa095efe8b8bb8464082f964736f6c634300081c0033","linkReferences":{}},"methodIdentifiers":{"DEPLOYMENT_REQUEST_TYPEHASH()":"31f4f12d","PROPOSAL_REQUEST_TYPEHASH()":"7b31d6f6","SIGNING_DOMAIN()":"e3faad94","UPGRADE_INTERFACE_VERSION()":"ad3cb1cc","VERSION()":"ffa1ad74","createDeploymentRequest(bytes32,address,string,string)":"7371498c","createDeploymentRequestWithSig(bytes32,address,string,string,bytes)":"934e218c","createMultipleDeploymentRequest(bytes32,address,address,string[],string)":"a6cda351","createPrivateDeploymentRequest(bytes32,address,address,string,string)":"bae7e16c","createPrivateDeploymentRequestWithSig(bytes32,address,address,string,string,bytes)":"e2ec525c","createPrivateProposalRequest(bytes32,address,string,string)":"59617ef7","createProjectID()":"2ae189d8","createProjectIDAndDeploymentRequest(bytes32,string,string)":"c4845f5f","createProjectIDAndDeploymentRequestWithSig(bytes32,string,string,bytes)":"4ce354f0","createProjectIDAndPrivateDeploymentRequest(bytes32,string,address,string)":"7ce53f49","createProjectIDAndPrivateDeploymentRequestWithSig(bytes32,string,address,string,bytes)":"9a7d9ce2","createProjectIDAndProposalRequest(bytes32,string,string)":"924b2a2a","createProjectIDAndProposalRequestWithSig(bytes32,string,string,bytes)":"5516fe1d","createProjectIdAndPrivateDeploymentWithConfig(bytes32,string,address,string)":"b83b4315","createProposalRequest(bytes32,string,string)":"84717e90","createProposalRequestWithSig(bytes32,string,string,bytes)":"2943f3eb","deploymentIdList(bytes32,uint256)":"d2a0c275","dummyAddress()":"05b38312","eip712Domain()":"84b0196e","factor()":"54f703f8","getAddress()":"38cc4831","getDeploymentProof(bytes32)":"4b6680de","getDeploymentStatus(bytes32)":"09470536","getEIP712ContractAddress()":"c3a1ae27","getLatestDeploymentRequestID(address)":"b9bb7135","getLatestProposalRequestID(address)":"f11d3675","getLatestUserProjectID(address)":"ce1b4ff5","getProjectInfo(bytes32)":"e0566833","getReputation(address)":"9c89a0e2","getRequestDeploymentDigest(bytes32,string,string)":"62bd459c","getRequestProposalDigest(bytes32,string,string)":"c03044f3","getSignerAddress(bytes32,bytes)":"0f7d8e39","getWorkerAddresses()":"39c12636","getWorkerPublicKey(address)":"4caafee2","initialize()":"8129fc1c","latestDeploymentRequestID(address)":"078ebeae","latestProjectID(address)":"56ed8752","latestProposalRequestID(address)":"822c737a","owner()":"8da5cb5b","proxiableUUID()":"52d1902d","renounceOwnership()":"715018a6","requestDeploymentStatus(bytes32)":"fcc82939","setWorkerPublicKey(bytes)":"4bcaa626","solverReputation(address)":"ed3c95c0","submitDeploymentRequest(bytes32,bytes32)":"be539d3f","submitProofOfDeployment(bytes32,bytes32,string)":"e128fced","totalDeploymentRequest()":"83c49efa","totalProposalRequest()":"a97bedfe","transferOwnership(address)":"f2fde38b","updateWorkerDeploymentConfig(bytes32,bytes32,string)":"c68a7e32","upgradeProject(bytes32)":"3550753c","upgradeToAndCall(address,bytes)":"4f1ef286","workerReputation(address)":"08a101b8"},"storageLayout":{"storage":[{"astId":54451,"contract":"src/BlueprintV3.sol:BlueprintV3","label":"VERSION","offset":0,"slot":"0","type":"t_string_storage"},{"astId":54453,"contract":"src/BlueprintV3.sol:BlueprintV3","label":"factor","offset":0,"slot":"1","type":"t_uint256"},{"astId":54455,"contract":"src/BlueprintV3.sol:BlueprintV3","label":"totalProposalRequest","offset":0,"slot":"2","type":"t_uint256"},{"astId":54457,"contract":"src/BlueprintV3.sol:BlueprintV3","label":"totalDeploymentRequest","offset":0,"slot":"3","type":"t_uint256"},{"astId":54461,"contract":"src/BlueprintV3.sol:BlueprintV3","label":"latestProposalRequestID","offset":0,"slot":"4","type":"t_mapping(t_address,t_bytes32)"},{"astId":54465,"contract":"src/BlueprintV3.sol:BlueprintV3","label":"latestDeploymentRequestID","offset":0,"slot":"5","type":"t_mapping(t_address,t_bytes32)"},{"astId":54469,"contract":"src/BlueprintV3.sol:BlueprintV3","label":"latestProjectID","offset":0,"slot":"6","type":"t_mapping(t_address,t_bytes32)"},{"astId":54473,"contract":"src/BlueprintV3.sol:BlueprintV3","label":"solverReputation","offset":0,"slot":"7","type":"t_mapping(t_address,t_uint256)"},{"astId":54477,"contract":"src/BlueprintV3.sol:BlueprintV3","label":"workerReputation","offset":0,"slot":"8","type":"t_mapping(t_address,t_uint256)"},{"astId":54482,"contract":"src/BlueprintV3.sol:BlueprintV3","label":"requestDeploymentStatus","offset":0,"slot":"9","type":"t_mapping(t_bytes32,t_struct(DeploymentStatus)54449_storage)"},{"astId":54486,"contract":"src/BlueprintV3.sol:BlueprintV3","label":"deploymentProof","offset":0,"slot":"10","type":"t_mapping(t_bytes32,t_string_storage)"},{"astId":54490,"contract":"src/BlueprintV3.sol:BlueprintV3","label":"requestSolver","offset":0,"slot":"11","type":"t_mapping(t_bytes32,t_address)"},{"astId":54494,"contract":"src/BlueprintV3.sol:BlueprintV3","label":"requestWorker","offset":0,"slot":"12","type":"t_mapping(t_bytes32,t_address)"},{"astId":54498,"contract":"src/BlueprintV3.sol:BlueprintV3","label":"projectIDs","offset":0,"slot":"13","type":"t_mapping(t_bytes32,t_address)"},{"astId":54518,"contract":"src/BlueprintV3.sol:BlueprintV3","label":"projects","offset":0,"slot":"14","type":"t_mapping(t_bytes32,t_struct(Project)54507_storage)"},{"astId":54523,"contract":"src/BlueprintV3.sol:BlueprintV3","label":"deploymentIdList","offset":0,"slot":"15","type":"t_mapping(t_bytes32,t_array(t_bytes32)dyn_storage)"},{"astId":54526,"contract":"src/BlueprintV3.sol:BlueprintV3","label":"workerAddresses","offset":0,"slot":"16","type":"t_array(t_address)dyn_storage"},{"astId":54530,"contract":"src/BlueprintV3.sol:BlueprintV3","label":"workersPublicKey","offset":0,"slot":"17","type":"t_mapping(t_address,t_bytes_storage)"}],"types":{"t_address":{"encoding":"inplace","label":"address","numberOfBytes":"20"},"t_array(t_address)dyn_storage":{"encoding":"dynamic_array","label":"address[]","numberOfBytes":"32","base":"t_address"},"t_array(t_bytes32)dyn_storage":{"encoding":"dynamic_array","label":"bytes32[]","numberOfBytes":"32","base":"t_bytes32"},"t_bytes32":{"encoding":"inplace","label":"bytes32","numberOfBytes":"32"},"t_bytes_storage":{"encoding":"bytes","label":"bytes","numberOfBytes":"32"},"t_enum(Status)54443":{"encoding":"inplace","label":"enum Blueprint.Status","numberOfBytes":"1"},"t_mapping(t_address,t_bytes32)":{"encoding":"mapping","key":"t_address","label":"mapping(address => bytes32)","numberOfBytes":"32","value":"t_bytes32"},"t_mapping(t_address,t_bytes_storage)":{"encoding":"mapping","key":"t_address","label":"mapping(address => bytes)","numberOfBytes":"32","value":"t_bytes_storage"},"t_mapping(t_address,t_uint256)":{"encoding":"mapping","key":"t_address","label":"mapping(address => uint256)","numberOfBytes":"32","value":"t_uint256"},"t_mapping(t_bytes32,t_address)":{"encoding":"mapping","key":"t_bytes32","label":"mapping(bytes32 => address)","numberOfBytes":"32","value":"t_address"},"t_mapping(t_bytes32,t_array(t_bytes32)dyn_storage)":{"encoding":"mapping","key":"t_bytes32","label":"mapping(bytes32 => bytes32[])","numberOfBytes":"32","value":"t_array(t_bytes32)dyn_storage"},"t_mapping(t_bytes32,t_string_storage)":{"encoding":"mapping","key":"t_bytes32","label":"mapping(bytes32 => string)","numberOfBytes":"32","value":"t_string_storage"},"t_mapping(t_bytes32,t_struct(DeploymentStatus)54449_storage)":{"encoding":"mapping","key":"t_bytes32","label":"mapping(bytes32 => struct Blueprint.DeploymentStatus)","numberOfBytes":"32","value":"t_struct(DeploymentStatus)54449_storage"},"t_mapping(t_bytes32,t_struct(Project)54507_storage)":{"encoding":"mapping","key":"t_bytes32","label":"mapping(bytes32 => struct Blueprint.Project)","numberOfBytes":"32","value":"t_struct(Project)54507_storage"},"t_string_storage":{"encoding":"bytes","label":"string","numberOfBytes":"32"},"t_struct(DeploymentStatus)54449_storage":{"encoding":"inplace","label":"struct Blueprint.DeploymentStatus","numberOfBytes":"32","members":[{"astId":54446,"contract":"src/BlueprintV3.sol:BlueprintV3","label":"status","offset":0,"slot":"0","type":"t_enum(Status)54443"},{"astId":54448,"contract":"src/BlueprintV3.sol:BlueprintV3","label":"deployWorkerAddr","offset":1,"slot":"0","type":"t_address"}]},"t_struct(Project)54507_storage":{"encoding":"inplace","label":"struct Blueprint.Project","numberOfBytes":"128","members":[{"astId":54500,"contract":"src/BlueprintV3.sol:BlueprintV3","label":"id","offset":0,"slot":"0","type":"t_bytes32"},{"astId":54502,"contract":"src/BlueprintV3.sol:BlueprintV3","label":"requestProposalID","offset":0,"slot":"1","type":"t_bytes32"},{"astId":54504,"contract":"src/BlueprintV3.sol:BlueprintV3","label":"requestDeploymentID","offset":0,"slot":"2","type":"t_bytes32"},{"astId":54506,"contract":"src/BlueprintV3.sol:BlueprintV3","label":"proposedSolverAddr","offset":0,"slot":"3","type":"t_address"}]},"t_uint256":{"encoding":"inplace","label":"uint256","numberOfBytes":"32"}}},"id":69}