{"abi":[{"type":"function","name":"UPGRADE_INTERFACE_VERSION","inputs":[],"outputs":[{"name":"","type":"string","internalType":"string"}],"stateMutability":"view"},{"type":"function","name":"UpdateWorkerDeploymentConfig","inputs":[{"name":"projectId","type":"bytes32","internalType":"bytes32"},{"name":"requestID","type":"bytes32","internalType":"bytes32"},{"name":"updatedBase64Config","type":"string","internalType":"string"}],"outputs":[],"stateMutability":"nonpayable"},{"type":"function","name":"VERSION","inputs":[],"outputs":[{"name":"","type":"string","internalType":"string"}],"stateMutability":"view"},{"type":"function","name":"createDeploymentRequest","inputs":[{"name":"projectId","type":"bytes32","internalType":"bytes32"},{"name":"solverAddress","type":"address","internalType":"address"},{"name":"base64Proposal","type":"string","internalType":"string"},{"name":"serverURL","type":"string","internalType":"string"}],"outputs":[{"name":"","type":"bytes32","internalType":"bytes32"}],"stateMutability":"nonpayable"},{"type":"function","name":"createMultipleDeploymentRequest","inputs":[{"name":"projectId","type":"bytes32","internalType":"bytes32"},{"name":"solverAddress","type":"address","internalType":"address"},{"name":"base64Proposals","type":"string[]","internalType":"string[]"},{"name":"serverURL","type":"string","internalType":"string"}],"outputs":[{"name":"","type":"bytes32","internalType":"bytes32"}],"stateMutability":"nonpayable"},{"type":"function","name":"createMultiplePrivateDeploymentRequest","inputs":[{"name":"projectId","type":"bytes32","internalType":"bytes32"},{"name":"solverAddress","type":"address","internalType":"address"},{"name":"privateWorkerAddress","type":"address","internalType":"address"},{"name":"base64Proposals","type":"string[]","internalType":"string[]"},{"name":"serverURL","type":"string","internalType":"string"}],"outputs":[{"name":"","type":"bytes32","internalType":"bytes32"}],"stateMutability":"nonpayable"},{"type":"function","name":"createPrivateDeploymentRequest","inputs":[{"name":"projectId","type":"bytes32","internalType":"bytes32"},{"name":"solverAddress","type":"address","internalType":"address"},{"name":"privateWorkerAddress","type":"address","internalType":"address"},{"name":"base64Proposal","type":"string","internalType":"string"},{"name":"serverURL","type":"string","internalType":"string"}],"outputs":[{"name":"","type":"bytes32","internalType":"bytes32"}],"stateMutability":"nonpayable"},{"type":"function","name":"createPrivateProposalRequest","inputs":[{"name":"projectId","type":"bytes32","internalType":"bytes32"},{"name":"privateSolverAddress","type":"address","internalType":"address"},{"name":"base64RecParam","type":"string","internalType":"string"},{"name":"serverURL","type":"string","internalType":"string"}],"outputs":[{"name":"requestID","type":"bytes32","internalType":"bytes32"}],"stateMutability":"nonpayable"},{"type":"function","name":"createProjectID","inputs":[],"outputs":[{"name":"projectId","type":"bytes32","internalType":"bytes32"}],"stateMutability":"nonpayable"},{"type":"function","name":"createProjectIDAndDeploymentRequest","inputs":[{"name":"projectId","type":"bytes32","internalType":"bytes32"},{"name":"base64Proposal","type":"string","internalType":"string"},{"name":"serverURL","type":"string","internalType":"string"}],"outputs":[{"name":"","type":"bytes32","internalType":"bytes32"}],"stateMutability":"nonpayable"},{"type":"function","name":"createProjectIDAndPrivateDeploymentRequest","inputs":[{"name":"projectId","type":"bytes32","internalType":"bytes32"},{"name":"base64Proposal","type":"string","internalType":"string"},{"name":"privateWorkerAddress","type":"address","internalType":"address"},{"name":"serverURL","type":"string","internalType":"string"}],"outputs":[{"name":"","type":"bytes32","internalType":"bytes32"}],"stateMutability":"nonpayable"},{"type":"function","name":"createProjectIDAndProposalRequest","inputs":[{"name":"projectId","type":"bytes32","internalType":"bytes32"},{"name":"base64RecParam","type":"string","internalType":"string"},{"name":"serverURL","type":"string","internalType":"string"}],"outputs":[{"name":"requestID","type":"bytes32","internalType":"bytes32"}],"stateMutability":"nonpayable"},{"type":"function","name":"createProposalRequest","inputs":[{"name":"projectId","type":"bytes32","internalType":"bytes32"},{"name":"base64RecParam","type":"string","internalType":"string"},{"name":"serverURL","type":"string","internalType":"string"}],"outputs":[{"name":"requestID","type":"bytes32","internalType":"bytes32"}],"stateMutability":"nonpayable"},{"type":"function","name":"deploymentIdList","inputs":[{"name":"","type":"bytes32","internalType":"bytes32"},{"name":"","type":"uint256","internalType":"uint256"}],"outputs":[{"name":"","type":"bytes32","internalType":"bytes32"}],"stateMutability":"view"},{"type":"function","name":"dummyAddress","inputs":[],"outputs":[{"name":"","type":"address","internalType":"address"}],"stateMutability":"view"},{"type":"function","name":"factor","inputs":[],"outputs":[{"name":"","type":"uint256","internalType":"uint256"}],"stateMutability":"view"},{"type":"function","name":"getDeploymentProof","inputs":[{"name":"requestID","type":"bytes32","internalType":"bytes32"}],"outputs":[{"name":"","type":"string","internalType":"string"}],"stateMutability":"view"},{"type":"function","name":"getDeploymentStatus","inputs":[{"name":"requestID","type":"bytes32","internalType":"bytes32"}],"outputs":[{"name":"","type":"uint8","internalType":"enum Blueprint.Status"},{"name":"","type":"address","internalType":"address"}],"stateMutability":"view"},{"type":"function","name":"getLatestDeploymentRequestID","inputs":[{"name":"addr","type":"address","internalType":"address"}],"outputs":[{"name":"","type":"bytes32","internalType":"bytes32"}],"stateMutability":"view"},{"type":"function","name":"getLatestProposalRequestID","inputs":[{"name":"addr","type":"address","internalType":"address"}],"outputs":[{"name":"","type":"bytes32","internalType":"bytes32"}],"stateMutability":"view"},{"type":"function","name":"getLatestUserProjectID","inputs":[{"name":"addr","type":"address","internalType":"address"}],"outputs":[{"name":"","type":"bytes32","internalType":"bytes32"}],"stateMutability":"view"},{"type":"function","name":"getProjectInfo","inputs":[{"name":"projectId","type":"bytes32","internalType":"bytes32"}],"outputs":[{"name":"","type":"address","internalType":"address"},{"name":"","type":"bytes32","internalType":"bytes32"},{"name":"","type":"bytes32[]","internalType":"bytes32[]"}],"stateMutability":"view"},{"type":"function","name":"getReputation","inputs":[{"name":"addr","type":"address","internalType":"address"}],"outputs":[{"name":"","type":"uint256","internalType":"uint256"}],"stateMutability":"view"},{"type":"function","name":"initialize","inputs":[],"outputs":[],"stateMutability":"nonpayable"},{"type":"function","name":"latestDeploymentRequestID","inputs":[{"name":"","type":"address","internalType":"address"}],"outputs":[{"name":"","type":"bytes32","internalType":"bytes32"}],"stateMutability":"view"},{"type":"function","name":"latestProjectID","inputs":[{"name":"","type":"address","internalType":"address"}],"outputs":[{"name":"","type":"bytes32","internalType":"bytes32"}],"stateMutability":"view"},{"type":"function","name":"latestProposalRequestID","inputs":[{"name":"","type":"address","internalType":"address"}],"outputs":[{"name":"","type":"bytes32","internalType":"bytes32"}],"stateMutability":"view"},{"type":"function","name":"owner","inputs":[],"outputs":[{"name":"","type":"address","internalType":"address"}],"stateMutability":"view"},{"type":"function","name":"proxiableUUID","inputs":[],"outputs":[{"name":"","type":"bytes32","internalType":"bytes32"}],"stateMutability":"view"},{"type":"function","name":"renounceOwnership","inputs":[],"outputs":[],"stateMutability":"nonpayable"},{"type":"function","name":"requestDeploymentStatus","inputs":[{"name":"","type":"bytes32","internalType":"bytes32"}],"outputs":[{"name":"status","type":"uint8","internalType":"enum Blueprint.Status"},{"name":"deployWorkerAddr","type":"address","internalType":"address"}],"stateMutability":"view"},{"type":"function","name":"solverReputation","inputs":[{"name":"","type":"address","internalType":"address"}],"outputs":[{"name":"","type":"uint256","internalType":"uint256"}],"stateMutability":"view"},{"type":"function","name":"submitDeploymentRequest","inputs":[{"name":"projectId","type":"bytes32","internalType":"bytes32"},{"name":"requestID","type":"bytes32","internalType":"bytes32"}],"outputs":[{"name":"isAccepted","type":"bool","internalType":"bool"}],"stateMutability":"nonpayable"},{"type":"function","name":"submitProofOfDeployment","inputs":[{"name":"projectId","type":"bytes32","internalType":"bytes32"},{"name":"requestID","type":"bytes32","internalType":"bytes32"},{"name":"proofBase64","type":"string","internalType":"string"}],"outputs":[],"stateMutability":"nonpayable"},{"type":"function","name":"totalDeploymentRequest","inputs":[],"outputs":[{"name":"","type":"uint256","internalType":"uint256"}],"stateMutability":"view"},{"type":"function","name":"totalProposalRequest","inputs":[],"outputs":[{"name":"","type":"uint256","internalType":"uint256"}],"stateMutability":"view"},{"type":"function","name":"transferOwnership","inputs":[{"name":"newOwner","type":"address","internalType":"address"}],"outputs":[],"stateMutability":"nonpayable"},{"type":"function","name":"upgradeProject","inputs":[{"name":"projectId","type":"bytes32","internalType":"bytes32"}],"outputs":[],"stateMutability":"nonpayable"},{"type":"function","name":"upgradeToAndCall","inputs":[{"name":"newImplementation","type":"address","internalType":"address"},{"name":"data","type":"bytes","internalType":"bytes"}],"outputs":[],"stateMutability":"payable"},{"type":"function","name":"workerReputation","inputs":[{"name":"","type":"address","internalType":"address"}],"outputs":[{"name":"","type":"uint256","internalType":"uint256"}],"stateMutability":"view"},{"type":"event","name":"AcceptDeployment","inputs":[{"name":"projectID","type":"bytes32","indexed":true,"internalType":"bytes32"},{"name":"requestID","type":"bytes32","indexed":true,"internalType":"bytes32"},{"name":"workerAddress","type":"address","indexed":true,"internalType":"address"}],"anonymous":false},{"type":"event","name":"CreateProjectID","inputs":[{"name":"projectID","type":"bytes32","indexed":true,"internalType":"bytes32"},{"name":"walletAddress","type":"address","indexed":false,"internalType":"address"}],"anonymous":false},{"type":"event","name":"GeneratedProofOfDeployment","inputs":[{"name":"projectID","type":"bytes32","indexed":true,"internalType":"bytes32"},{"name":"requestID","type":"bytes32","indexed":true,"internalType":"bytes32"},{"name":"base64DeploymentProof","type":"string","indexed":false,"internalType":"string"}],"anonymous":false},{"type":"event","name":"Initialized","inputs":[{"name":"version","type":"uint64","indexed":false,"internalType":"uint64"}],"anonymous":false},{"type":"event","name":"OwnershipTransferred","inputs":[{"name":"previousOwner","type":"address","indexed":true,"internalType":"address"},{"name":"newOwner","type":"address","indexed":true,"internalType":"address"}],"anonymous":false},{"type":"event","name":"RequestDeployment","inputs":[{"name":"projectID","type":"bytes32","indexed":true,"internalType":"bytes32"},{"name":"walletAddress","type":"address","indexed":false,"internalType":"address"},{"name":"solverAddress","type":"address","indexed":false,"internalType":"address"},{"name":"requestID","type":"bytes32","indexed":true,"internalType":"bytes32"},{"name":"base64Proposal","type":"string","indexed":false,"internalType":"string"},{"name":"serverURL","type":"string","indexed":false,"internalType":"string"}],"anonymous":false},{"type":"event","name":"RequestPrivateDeployment","inputs":[{"name":"projectID","type":"bytes32","indexed":true,"internalType":"bytes32"},{"name":"walletAddress","type":"address","indexed":false,"internalType":"address"},{"name":"privateWorkerAddress","type":"address","indexed":false,"internalType":"address"},{"name":"solverAddress","type":"address","indexed":false,"internalType":"address"},{"name":"requestID","type":"bytes32","indexed":true,"internalType":"bytes32"},{"name":"base64Proposal","type":"string","indexed":false,"internalType":"string"},{"name":"serverURL","type":"string","indexed":false,"internalType":"string"}],"anonymous":false},{"type":"event","name":"RequestPrivateProposal","inputs":[{"name":"projectID","type":"bytes32","indexed":true,"internalType":"bytes32"},{"name":"walletAddress","type":"address","indexed":false,"internalType":"address"},{"name":"privateSolverAddress","type":"address","indexed":false,"internalType":"address"},{"name":"requestID","type":"bytes32","indexed":true,"internalType":"bytes32"},{"name":"base64RecParam","type":"string","indexed":false,"internalType":"string"},{"name":"serverURL","type":"string","indexed":false,"internalType":"string"}],"anonymous":false},{"type":"event","name":"RequestProposal","inputs":[{"name":"projectID","type":"bytes32","indexed":true,"internalType":"bytes32"},{"name":"walletAddress","type":"address","indexed":false,"internalType":"address"},{"name":"requestID","type":"bytes32","indexed":true,"internalType":"bytes32"},{"name":"base64RecParam","type":"string","indexed":false,"internalType":"string"},{"name":"serverURL","type":"string","indexed":false,"internalType":"string"}],"anonymous":false},{"type":"event","name":"UpdateDeploymentConfig","inputs":[{"name":"projectID","type":"bytes32","indexed":true,"internalType":"bytes32"},{"name":"requestID","type":"bytes32","indexed":true,"internalType":"bytes32"},{"name":"workerAddress","type":"address","indexed":false,"internalType":"address"},{"name":"base64Config","type":"string","indexed":false,"internalType":"string"}],"anonymous":false},{"type":"event","name":"Upgraded","inputs":[{"name":"implementation","type":"address","indexed":true,"internalType":"address"}],"anonymous":false},{"type":"error","name":"AddressEmptyCode","inputs":[{"name":"target","type":"address","internalType":"address"}]},{"type":"error","name":"ERC1967InvalidImplementation","inputs":[{"name":"implementation","type":"address","internalType":"address"}]},{"type":"error","name":"ERC1967NonPayable","inputs":[]},{"type":"error","name":"FailedCall","inputs":[]},{"type":"error","name":"InvalidInitialization","inputs":[]},{"type":"error","name":"NotInitializing","inputs":[]},{"type":"error","name":"OwnableInvalidOwner","inputs":[{"name":"owner","type":"address","internalType":"address"}]},{"type":"error","name":"OwnableUnauthorizedAccount","inputs":[{"name":"account","type":"address","internalType":"address"}]},{"type":"error","name":"UUPSUnauthorizedCallContext","inputs":[]},{"type":"error","name":"UUPSUnsupportedProxiableUUID","inputs":[{"name":"slot","type":"bytes32","internalType":"bytes32"}]}],"bytecode":{"object":"0x60a0604052306080523480156012575f5ffd5b50608051612f136100395f395f8181611a6201528181611a8b0152611bcf0152612f135ff3fe608060405260043610610233575f3560e01c80638da5cb5b11610129578063d2a0c275116100a8578063ed3c95c01161006d578063ed3c95c014610736578063f11d367514610761578063f2fde38b14610795578063fcc82939146107b4578063ffa1ad74146107f2575f5ffd5b8063d2a0c2751461068c578063d98f5877146106ab578063e0566833146106ca578063e128fced146106f8578063eb42bc8a14610717575f5ffd5b8063b9bb7135116100ee578063b9bb7135146105b7578063bae7e16c146105eb578063be539d3f1461060a578063c4845f5f14610639578063ce1b4ff514610658575f5ffd5b80638da5cb5b146104e3578063924b2a2a1461051f5780639c89a0e21461053e578063a97bedfe14610572578063ad3cb1cc14610587575f5ffd5b806354f703f8116101b55780637ce53f491161017a5780637ce53f49146104515780638129fc1c14610470578063822c737a1461048457806383c49efa146104af57806384717e90146104c4575f5ffd5b806354f703f8146103bf57806356ed8752146103d457806359617ef7146103ff578063715018a61461041e5780637371498c14610432575f5ffd5b80632ae189d8116101fb5780632ae189d8146103395780633550753c1461034d5780634b6680de1461036c5780634f1ef2861461039857806352d1902d146103ab575f5ffd5b806304887e2f1461023757806305b3831214610258578063078ebeae1461028857806308a101b8146102c157806309470536146102ec575b5f5ffd5b348015610242575f5ffd5b50610256610251366004612598565b610806565b005b348015610263575f5ffd5b5061026b5f81565b6040516001600160a01b0390911681526020015b60405180910390f35b348015610293575f5ffd5b506102b36102a23660046125fe565b60056020525f908152604090205481565b60405190815260200161027f565b3480156102cc575f5ffd5b506102b36102db3660046125fe565b60086020525f908152604090205481565b3480156102f7575f5ffd5b5061032b610306366004612617565b5f9081526009602052604090205460ff8116916101009091046001600160a01b031690565b60405161027f929190612642565b348015610344575f5ffd5b506102b3610a33565b348015610358575f5ffd5b50610256610367366004612617565b610a86565b348015610377575f5ffd5b5061038b610386366004612617565b610b01565b60405161027f91906126a8565b6102566103a63660046126ba565b610ba0565b3480156103b6575f5ffd5b506102b3610bbf565b3480156103ca575f5ffd5b506102b360015481565b3480156103df575f5ffd5b506102b36103ee3660046125fe565b60066020525f908152604090205481565b34801561040a575f5ffd5b506102b3610419366004612717565b610bda565b348015610429575f5ffd5b50610256610c30565b34801561043d575f5ffd5b506102b361044c366004612717565b610c43565b34801561045c575f5ffd5b506102b361046b366004612793565b610ceb565b34801561047b575f5ffd5b50610256610d99565b34801561048f575f5ffd5b506102b361049e3660046125fe565b60046020525f908152604090205481565b3480156104ba575f5ffd5b506102b360035481565b3480156104cf575f5ffd5b506102b36104de3660046127f7565b610eab565b3480156104ee575f5ffd5b507f9016d09d72d40fdae2fd8ceac6b6234c7706214fd39c1cd1e609a0528c199300546001600160a01b031661026b565b34801561052a575f5ffd5b506102b36105393660046127f7565b610efe565b348015610549575f5ffd5b506102b36105583660046125fe565b6001600160a01b03165f9081526007602052604090205490565b34801561057d575f5ffd5b506102b360025481565b348015610592575f5ffd5b5061038b604051806040016040528060058152602001640352e302e360dc1b81525081565b3480156105c2575f5ffd5b506102b36105d13660046125fe565b6001600160a01b03165f9081526005602052604090205490565b3480156105f6575f5ffd5b506102b361060536600461284c565b610f13565b348015610615575f5ffd5b506106296106243660046128d8565b610ff4565b604051901515815260200161027f565b348015610644575f5ffd5b506102b36106533660046127f7565b61122e565b348015610663575f5ffd5b506102b36106723660046125fe565b6001600160a01b03165f9081526006602052604090205490565b348015610697575f5ffd5b506102b36106a63660046128d8565b6112b8565b3480156106b6575f5ffd5b506102b36106c536600461299a565b6112e3565b3480156106d5575f5ffd5b506106e96106e4366004612617565b611476565b60405161027f939291906129f2565b348015610703575f5ffd5b50610256610712366004612598565b61153b565b348015610722575f5ffd5b506102b3610731366004612a4e565b611712565b348015610741575f5ffd5b506102b36107503660046125fe565b60076020525f908152604090205481565b34801561076c575f5ffd5b506102b361077b3660046125fe565b6001600160a01b03165f9081526004602052604090205490565b3480156107a0575f5ffd5b506102566107af3660046125fe565b611870565b3480156107bf575f5ffd5b5061032b6107ce366004612617565b60096020525f908152604090205460ff81169061010090046001600160a01b031682565b3480156107fd575f5ffd5b5061038b6118ad565b5f838152600e602052604090205415158061083657505f838152600d60205260409020546001600160a01b031615155b61085b5760405162461bcd60e51b815260040161085290612a97565b60405180910390fd5b5f8281526009602052604081205460ff16600581111561087d5761087d61262e565b036108bf5760405162461bcd60e51b81526020600482015260126024820152711c995c5d595cdd1251081b9bdd08195e1a5d60721b6044820152606401610852565b5f81511161090f5760405162461bcd60e51b815260206004820152601c60248201527f75706461746564426173653634436f6e66696720697320656d707479000000006044820152606401610852565b60015f8381526009602052604090205460ff1660058111156109335761093361262e565b036109915760405162461bcd60e51b815260206004820152602860248201527f726571756573744944206973206e6f74207069636b656420757020627920616e6044820152673c903bb7b935b2b960c11b6064820152608401610852565b60055f8381526009602052604090205460ff1660058111156109b5576109b561262e565b036109d3575f828152600960205260409020805460ff191660021790555b5f8281526009602052604090819020549051839185917fce8f8849a89ebf447425479c86ccdc17f11697958b4bca671fcdf65bc3012c2191610a26916101009091046001600160a01b0316908690612ace565b60405180910390a3505050565b604080514260208201526bffffffffffffffffffffffff193360601b16918101919091524660548201525f90607401604051602081830303815290604052805190602001209050610a8381611938565b90565b5f818152600e6020526040902054151580610ab657505f818152600d60205260409020546001600160a01b031615155b610ad25760405162461bcd60e51b815260040161085290612a97565b5f908152600e6020526040812060018101829055600281019190915560030180546001600160a01b0319169055565b5f818152600a60205260409020805460609190610b1d90612af1565b80601f0160208091040260200160405190810160405280929190818152602001828054610b4990612af1565b8015610b945780601f10610b6b57610100808354040283529160200191610b94565b820191905f5260205f20905b815481529060010190602001808311610b7757829003601f168201915b50505050509050919050565b610ba8611a57565b610bb182611afb565b610bbb8282611b03565b5050565b5f610bc8611bc4565b505f516020612e7e5f395f51905f5290565b5f610be785858585611c0d565b905080857f1eb4ec68b7c7cf7850d18fd32bdd1cb9e2c9b7e1de32211eef093af3cf262aee33878787604051610c209493929190612b29565b60405180910390a3949350505050565b610c38611dfc565b610c415f611e57565b565b5f6001600160a01b038416610c6a5760405162461bcd60e51b815260040161085290612b71565b5f5f610c7a87875f88885f611ec7565b5f898152600e60209081526040808320600201849055838352600f825280832080546001810182559084529190922001839055519193509150829088905f516020612e9e5f395f51905f5290610cd79033908b908b908b90612b29565b60405180910390a35090505b949350505050565b5f610cf585611938565b5f5f610d05875f8789885f611ec7565b5f898152600e60209081526040808320600201849055838352600f8252808320805460018101825590845291832090910184905551929450909250839189915f516020612e9e5f395f51905f5291610d629133918c908b90612b29565b60405180910390a3846001600160a01b031682885f516020612ebe5f395f51905f5260405160405180910390a45095945050505050565b7ff0c57e16840df040f15088dc2f81fe391c3923bec73e23a9662efc9c229c6a00805460029190600160401b900460ff1680610de2575080546001600160401b03808416911610155b15610e005760405163f92ee8a960e01b815260040160405180910390fd5b805468ffffffffffffffffff19166001600160401b03831617600160401b178155610e2a336121d7565b610e326121e8565b6040805180820190915260058152640322e302e360dc1b60208201525f90610e5a9082612bf3565b50805468ff0000000000000000191681556040516001600160401b03831681527fc7f505b2f371ae2175ee4913f4499e1f2633a7b5936321eed1cdaeb6115181d29060200160405180910390a15050565b5f610eb8845f8585611c0d565b905080847f660f0cd9ab48b3916970cca5763925f3b8f0e0e158fb9f0f4ae5f71e9605d767338686604051610eef93929190612cad565b60405180910390a39392505050565b5f610f0884611938565b610ce3848484610eab565b5f6001600160a01b038516610f3a5760405162461bcd60e51b815260040161085290612b71565b5f5f610f4a88888888885f611ec7565b5f8a8152600e60209081526040808320600201849055838352600f825280832080546001810182559084529190922001839055519193509150829089907f26e5b75b543be1cdad2907ba50a99eeb5c3a05381eee18d5b6a565b2bbccd1ba90610fbc9033908b908d908c908c90612ce2565b60405180910390a3856001600160a01b031682895f516020612ebe5f395f51905f5260405160405180910390a4509695505050505050565b5f828152600e602052604081205415158061102457505f838152600d60205260409020546001600160a01b031615155b6110405760405162461bcd60e51b815260040161085290612a97565b5f8281526009602052604081205460ff1660058111156110625761106261262e565b036110af5760405162461bcd60e51b815260206004820152601860248201527f72657175657374494420646f6573206e6f7420657869737400000000000000006044820152606401610852565b60025f8381526009602052604090205460ff1660058111156110d3576110d361262e565b036111545760405162461bcd60e51b815260206004820152604560248201527f72657175657374494420616c7265616479207069636b656420627920616e6f7460448201527f68657220776f726b65722c20747279206120646966666572656e742072657175606482015264195cdd125160da1b608482015260a401610852565b60055f8381526009602052604090205460ff1660058111156111785761117861262e565b036111d35760405162461bcd60e51b815260206004820152602560248201527f7265717565737449442068617320616c7265616479207375626d697474656420604482015264383937b7b360d91b6064820152608401610852565b505f81815260096020526040808220805460026101003381026001600160a81b03199093169290921717918290559151600193929091046001600160a01b031691849186915f516020612ebe5f395f51905f5291a492915050565b5f61123884611938565b5f5f611248865f5f88885f611ec7565b5f888152600e60209081526040808320600201849055838352600f8252808320805460018101825590845291832090910184905551929450909250839188915f516020612e9e5f395f51905f52916112a59133918b908b90612b29565b60405180910390a35090505b9392505050565b600f602052815f5260405f2081815481106112d1575f80fd5b905f5260205f20015f91509150505481565b5f6001600160a01b03851661130a5760405162461bcd60e51b815260040161085290612b71565b82515f0361135a5760405162461bcd60e51b815260206004820152601e60248201527f62617365363450726f706f73616c7320617272617920697320656d70747900006044820152606401610852565b5f805b8451811015611457575f5f61138f8a8a8a8a878151811061138057611380612d33565b60200260200101518a88611ec7565b909250905083156113bf575f848152600f60209081526040822080546001810182559083529120018290556113e3565b5f818152600f60209081526040822080546001810182559083529120018290559250825b818a5f516020612e9e5f395f51905f52338c8b888151811061140757611407612d33565b60200260200101518b6040516114209493929190612b29565b60405180910390a3876001600160a01b0316828b5f516020612ebe5f395f51905f5260405160405180910390a4505060010161135d565b505f878152600e60205260409020600201819055905095945050505050565b5f818152600e6020526040812054819060609082036114a75760405162461bcd60e51b815260040161085290612a97565b5f848152600e60209081526040808320600201548352600f82528083208054825181850281018501909352808352919290919083018282801561150757602002820191905f5260205f20905b8154815260200190600101908083116114f3575b5050505f9788525050600e602052604090952060038101546001909101546001600160a01b03909116969095945092505050565b5f838152600e602052604090205415158061156b57505f838152600d60205260409020546001600160a01b031615155b6115875760405162461bcd60e51b815260040161085290612a97565b5f8281526009602052604081205460ff1660058111156115a9576115a961262e565b036115eb5760405162461bcd60e51b81526020600482015260126024820152711c995c5d595cdd1251081b9bdd08195e1a5d60721b6044820152606401610852565b5f8281526009602052604090205461010090046001600160a01b0316331461164c5760405162461bcd60e51b815260206004820152601460248201527377726f6e6720776f726b6572206164647265737360601b6044820152606401610852565b60055f8381526009602052604090205460ff1660058111156116705761167061262e565b036116b45760405162461bcd60e51b815260206004820152601460248201527330b63932b0b23c9039bab136b4ba10383937b7b360611b6044820152606401610852565b5f828152600960209081526040808320805460ff19166005179055600a90915290206116e08282612bf3565b5081837fddb29833db778500c94a5880f1a8ad549d91ec7c80faee2b3735bda881fa6d9883604051610a2691906126a8565b5f6001600160a01b0384166117395760405162461bcd60e51b815260040161085290612b71565b82515f036117895760405162461bcd60e51b815260206004820152601e60248201527f62617365363450726f706f73616c7320617272617920697320656d70747900006044820152606401610852565b5f805b8451811015611852575f5f6117af89895f8a878151811061138057611380612d33565b909250905083156117df575f848152600f6020908152604082208054600181018255908352912001829055611803565b5f818152600f60209081526040822080546001810182559083529120018290559250825b81895f516020612e9e5f395f51905f52338b8b888151811061182757611827612d33565b60200260200101518b6040516118409493929190612b29565b60405180910390a3505060010161178c565b505f868152600e602052604090206002018190559050949350505050565b611878611dfc565b6001600160a01b0381166118a157604051631e4fbdf760e01b81525f6004820152602401610852565b6118aa81611e57565b50565b5f80546118b990612af1565b80601f01602080910402602001604051908101604052809291908181526020018280546118e590612af1565b80156119305780601f1061190757610100808354040283529160200191611930565b820191905f5260205f20905b81548152906001019060200180831161191357829003601f168201915b505050505081565b5f818152600e6020526040902054156119935760405162461bcd60e51b815260206004820152601860248201527f70726f6a656374496420616c72656164792065786973747300000000000000006044820152606401610852565b6119c360405180608001604052805f81526020015f81526020015f81526020015f6001600160a01b031681525090565b8181525f828152600e60209081526040808320845181558285015160018201558185015160028201556060850151600390910180546001600160a01b0319166001600160a01b039092169190911790553380845260068352928190208590555191825283917f988dde20b788b20d2f8188ab37bc9419a99761fc4ec19356dc30cfa49b4601dc910160405180910390a25050565b306001600160a01b037f0000000000000000000000000000000000000000000000000000000000000000161480611add57507f00000000000000000000000000000000000000000000000000000000000000006001600160a01b0316611ad15f516020612e7e5f395f51905f52546001600160a01b031690565b6001600160a01b031614155b15610c415760405163703e46dd60e11b815260040160405180910390fd5b6118aa611dfc565b816001600160a01b03166352d1902d6040518163ffffffff1660e01b8152600401602060405180830381865afa925050508015611b5d575060408051601f3d908101601f19168201909252611b5a91810190612d47565b60015b611b8557604051634c9c8ce360e01b81526001600160a01b0383166004820152602401610852565b5f516020612e7e5f395f51905f528114611bb557604051632a87526960e21b815260048101829052602401610852565b611bbf83836121f0565b505050565b306001600160a01b037f00000000000000000000000000000000000000000000000000000000000000001614610c415760405163703e46dd60e11b815260040160405180910390fd5b5f848152600e6020526040812054151580611c3d57505f858152600d60205260409020546001600160a01b031615155b611c595760405162461bcd60e51b815260040161085290612a97565b5f825111611c9e5760405162461bcd60e51b815260206004820152601260248201527173657276657255524c20697320656d70747960701b6044820152606401610852565b5f835111611cee5760405162461bcd60e51b815260206004820152601760248201527f626173653634526563506172616d20697320656d7074790000000000000000006044820152606401610852565b42338446604051602001611d059493929190612d75565b60408051601f1981840301815291815281516020928301205f888152600e90935291206001015490915015611d865760405162461bcd60e51b815260206004820152602160248201527f70726f706f73616c2072657175657374494420616c72656164792065786973746044820152607360f81b6064820152608401610852565b335f908152600460209081526040808320849055878352600e90915281206001018290556002805491611db883612dc1565b90915550506001600160a01b03841615610ce3575f818152600b6020526040902080546001600160a01b0386166001600160a01b0319909116179055949350505050565b33611e2e7f9016d09d72d40fdae2fd8ceac6b6234c7706214fd39c1cd1e609a0528c199300546001600160a01b031690565b6001600160a01b031614610c415760405163118cdaa760e01b8152336004820152602401610852565b7f9016d09d72d40fdae2fd8ceac6b6234c7706214fd39c1cd1e609a0528c19930080546001600160a01b031981166001600160a01b03848116918217845560405192169182907f8be0079c531659141344cd1fd0a4f28419497f9722a3daafe3b4186f6b6457e0905f90a3505050565b5f868152600e60205260408120548190151580611ef957505f888152600d60205260409020546001600160a01b031615155b611f155760405162461bcd60e51b815260040161085290612a97565b5f845111611f5a5760405162461bcd60e51b815260206004820152601260248201527173657276657255524c20697320656d70747960701b6044820152606401610852565b5f855111611faa5760405162461bcd60e51b815260206004820152601760248201527f62617365363450726f706f73616c20697320656d7074790000000000000000006044820152606401610852565b423386468b604051602001611fc3959493929190612dd9565b60408051601f1981840301815291815281516020928301205f8b8152600e909352912060020154909150156120465760405162461bcd60e51b815260206004820152602360248201527f6465706c6f796d656e742072657175657374494420616c72656164792065786960448201526273747360e81b6064820152608401610852565b423386468660405160200161205f959493929190612dd9565b60408051601f198184030181529181528151602092830120335f908152600590935290822081905560038054919450909161209983612dc1565b91905055506120a787612245565b50604080518082019091525f80825260208201526001600160a01b03871661212c5760018082525f848152600960205260409020825181548493839160ff1916908360058111156120fa576120fa61262e565b02179055506020919091015181546001600160a01b0390911661010002610100600160a81b03199091161790556121a0565b600281526001600160a01b0387166020808301919091525f8481526009909152604090208151815483929190829060ff191660018360058111156121725761217261262e565b02179055506020919091015181546001600160a01b0390911661010002610100600160a81b03199091161790555b505f888152600e6020526040902060030180546001600160a01b0389166001600160a01b0319909116179055965096945050505050565b6121df612312565b6118aa8161235b565b610c41612312565b6121f982612363565b6040516001600160a01b038316907fbc7cd75a20ee27fd9adebab32041f755214dbc6bffa90cc0225b39da2e5c2d3b905f90a280511561223d57611bbf82826123c6565b610bbb61243a565b6001600160a01b0381165f9081526007602052604090205460015461226b906006612e16565b8110156122865760015461227f9082612e2d565b90506122f4565b6103e860025411156122c1576002546001546122a3906006612e16565b6122ad9083612e40565b6122b79190612e53565b61227f9082612e2d565b6103e860015460066122d39190612e16565b6122dd9083612e40565b6122e79190612e53565b6122f19082612e2d565b90505b6001600160a01b039091165f90815260076020526040902081905590565b7ff0c57e16840df040f15088dc2f81fe391c3923bec73e23a9662efc9c229c6a0054600160401b900460ff16610c4157604051631afcd79f60e31b815260040160405180910390fd5b611878612312565b806001600160a01b03163b5f0361239857604051634c9c8ce360e01b81526001600160a01b0382166004820152602401610852565b5f516020612e7e5f395f51905f5280546001600160a01b0319166001600160a01b0392909216919091179055565b60605f5f846001600160a01b0316846040516123e29190612e72565b5f60405180830381855af49150503d805f811461241a576040519150601f19603f3d011682016040523d82523d5f602084013e61241f565b606091505b509150915061242f858383612459565b925050505b92915050565b3415610c415760405163b398979f60e01b815260040160405180910390fd5b60608261246e57612469826124b5565b6112b1565b815115801561248557506001600160a01b0384163b155b156124ae57604051639996b31560e01b81526001600160a01b0385166004820152602401610852565b50806112b1565b8051156124c55780518082602001fd5b60405163d6bda27560e01b815260040160405180910390fd5b634e487b7160e01b5f52604160045260245ffd5b604051601f8201601f191681016001600160401b038111828210171561251a5761251a6124de565b604052919050565b5f5f6001600160401b0384111561253b5761253b6124de565b50601f8301601f1916602001612550816124f2565b915050828152838383011115612564575f5ffd5b828260208301375f602084830101529392505050565b5f82601f830112612589575f5ffd5b6112b183833560208501612522565b5f5f5f606084860312156125aa575f5ffd5b833592506020840135915060408401356001600160401b038111156125cd575f5ffd5b6125d98682870161257a565b9150509250925092565b80356001600160a01b03811681146125f9575f5ffd5b919050565b5f6020828403121561260e575f5ffd5b6112b1826125e3565b5f60208284031215612627575f5ffd5b5035919050565b634e487b7160e01b5f52602160045260245ffd5b604081016006841061266257634e487b7160e01b5f52602160045260245ffd5b9281526001600160a01b039190911660209091015290565b5f81518084528060208401602086015e5f602082860101526020601f19601f83011685010191505092915050565b602081525f6112b1602083018461267a565b5f5f604083850312156126cb575f5ffd5b6126d4836125e3565b915060208301356001600160401b038111156126ee575f5ffd5b8301601f810185136126fe575f5ffd5b61270d85823560208401612522565b9150509250929050565b5f5f5f5f6080858703121561272a575f5ffd5b8435935061273a602086016125e3565b925060408501356001600160401b03811115612754575f5ffd5b6127608782880161257a565b92505060608501356001600160401b0381111561277b575f5ffd5b6127878782880161257a565b91505092959194509250565b5f5f5f5f608085870312156127a6575f5ffd5b8435935060208501356001600160401b038111156127c2575f5ffd5b6127ce8782880161257a565b9350506127dd604086016125e3565b915060608501356001600160401b0381111561277b575f5ffd5b5f5f5f60608486031215612809575f5ffd5b8335925060208401356001600160401b03811115612825575f5ffd5b6128318682870161257a565b92505060408401356001600160401b038111156125cd575f5ffd5b5f5f5f5f5f60a08688031215612860575f5ffd5b85359450612870602087016125e3565b935061287e604087016125e3565b925060608601356001600160401b03811115612898575f5ffd5b6128a48882890161257a565b92505060808601356001600160401b038111156128bf575f5ffd5b6128cb8882890161257a565b9150509295509295909350565b5f5f604083850312156128e9575f5ffd5b50508035926020909101359150565b5f82601f830112612907575f5ffd5b81356001600160401b03811115612920576129206124de565b8060051b612930602082016124f2565b9182526020818501810192908101908684111561294b575f5ffd5b6020860192505b838310156129905782356001600160401b0381111561296f575f5ffd5b61297e886020838a010161257a565b83525060209283019290910190612952565b9695505050505050565b5f5f5f5f5f60a086880312156129ae575f5ffd5b853594506129be602087016125e3565b93506129cc604087016125e3565b925060608601356001600160401b038111156129e6575f5ffd5b6128a4888289016128f8565b6001600160a01b0384168152602080820184905260606040830181905283519083018190525f918401906080840190835b81811015612a41578351835260209384019390920191600101612a23565b5090979650505050505050565b5f5f5f5f60808587031215612a61575f5ffd5b84359350612a71602086016125e3565b925060408501356001600160401b03811115612a8b575f5ffd5b612760878288016128f8565b60208082526018908201527f70726f6a656374496420646f6573206e6f742065786973740000000000000000604082015260600190565b6001600160a01b03831681526040602082018190525f90610ce39083018461267a565b600181811c90821680612b0557607f821691505b602082108103612b2357634e487b7160e01b5f52602260045260245ffd5b50919050565b6001600160a01b038581168252841660208201526080604082018190525f90612b549083018561267a565b8281036060840152612b66818561267a565b979650505050505050565b6020808252601a908201527f736f6c76657241646472657373206973206e6f742076616c6964000000000000604082015260600190565b601f821115611bbf57805f5260205f20601f840160051c81016020851015612bcd5750805b601f840160051c820191505b81811015612bec575f8155600101612bd9565b5050505050565b81516001600160401b03811115612c0c57612c0c6124de565b612c2081612c1a8454612af1565b84612ba8565b6020601f821160018114612c52575f8315612c3b5750848201515b5f19600385901b1c1916600184901b178455612bec565b5f84815260208120601f198516915b82811015612c815787850151825560209485019460019092019101612c61565b5084821015612c9e57868401515f19600387901b60f8161c191681555b50505050600190811b01905550565b6001600160a01b03841681526060602082018190525f90612cd09083018561267a565b8281036040840152612990818561267a565b6001600160a01b03868116825285811660208301528416604082015260a0606082018190525f90612d159083018561267a565b8281036080840152612d27818561267a565b98975050505050505050565b634e487b7160e01b5f52603260045260245ffd5b5f60208284031215612d57575f5ffd5b5051919050565b5f81518060208401855e5f93019283525090919050565b8481526bffffffffffffffffffffffff198460601b1660208201525f612d9e6034830185612d5e565b92835250506020019392505050565b634e487b7160e01b5f52601160045260245ffd5b5f60018201612dd257612dd2612dad565b5060010190565b8581526bffffffffffffffffffffffff198560601b1660208201525f612e026034830186612d5e565b938452505060208201526040019392505050565b808202811582820484141761243457612434612dad565b8082018082111561243457612434612dad565b8181038181111561243457612434612dad565b5f82612e6d57634e487b7160e01b5f52601260045260245ffd5b500490565b5f6112b18284612d5e56fe360894a13ba1a3210667c828492db98dca3e2076cc3735a920a3ca505d382bbccdde0392731ff1ddcc3295ee84db8db4a9ad3d8f34056867af8c9f3b2920d44e065b3b95166dc6cadb255ba57b9623fa09d0519437b43d13dbd0d7f7a5ee9b76a264697066735822122032c65feb5487f6d1a6136de59a30d03ae9a5a77290a22227afe1b926743d98b464736f6c634300081c0033","linkReferences":{}},"methodIdentifiers":{"UPGRADE_INTERFACE_VERSION()":"ad3cb1cc","UpdateWorkerDeploymentConfig(bytes32,bytes32,string)":"04887e2f","VERSION()":"ffa1ad74","createDeploymentRequest(bytes32,address,string,string)":"7371498c","createMultipleDeploymentRequest(bytes32,address,string[],string)":"eb42bc8a","createMultiplePrivateDeploymentRequest(bytes32,address,address,string[],string)":"d98f5877","createPrivateDeploymentRequest(bytes32,address,address,string,string)":"bae7e16c","createPrivateProposalRequest(bytes32,address,string,string)":"59617ef7","createProjectID()":"2ae189d8","createProjectIDAndDeploymentRequest(bytes32,string,string)":"c4845f5f","createProjectIDAndPrivateDeploymentRequest(bytes32,string,address,string)":"7ce53f49","createProjectIDAndProposalRequest(bytes32,string,string)":"924b2a2a","createProposalRequest(bytes32,string,string)":"84717e90","deploymentIdList(bytes32,uint256)":"d2a0c275","dummyAddress()":"05b38312","factor()":"54f703f8","getDeploymentProof(bytes32)":"4b6680de","getDeploymentStatus(bytes32)":"09470536","getLatestDeploymentRequestID(address)":"b9bb7135","getLatestProposalRequestID(address)":"f11d3675","getLatestUserProjectID(address)":"ce1b4ff5","getProjectInfo(bytes32)":"e0566833","getReputation(address)":"9c89a0e2","initialize()":"8129fc1c","latestDeploymentRequestID(address)":"078ebeae","latestProjectID(address)":"56ed8752","latestProposalRequestID(address)":"822c737a","owner()":"8da5cb5b","proxiableUUID()":"52d1902d","renounceOwnership()":"715018a6","requestDeploymentStatus(bytes32)":"fcc82939","solverReputation(address)":"ed3c95c0","submitDeploymentRequest(bytes32,bytes32)":"be539d3f","submitProofOfDeployment(bytes32,bytes32,string)":"e128fced","totalDeploymentRequest()":"83c49efa","totalProposalRequest()":"a97bedfe","transferOwnership(address)":"f2fde38b","upgradeProject(bytes32)":"3550753c","upgradeToAndCall(address,bytes)":"4f1ef286","workerReputation(address)":"08a101b8"},"storageLayout":{"storage":[{"astId":57500,"contract":"src/BlueprintV2.sol:BlueprintV2","label":"VERSION","offset":0,"slot":"0","type":"t_string_storage"},{"astId":57502,"contract":"src/BlueprintV2.sol:BlueprintV2","label":"factor","offset":0,"slot":"1","type":"t_uint256"},{"astId":57504,"contract":"src/BlueprintV2.sol:BlueprintV2","label":"totalProposalRequest","offset":0,"slot":"2","type":"t_uint256"},{"astId":57506,"contract":"src/BlueprintV2.sol:BlueprintV2","label":"totalDeploymentRequest","offset":0,"slot":"3","type":"t_uint256"},{"astId":57510,"contract":"src/BlueprintV2.sol:BlueprintV2","label":"latestProposalRequestID","offset":0,"slot":"4","type":"t_mapping(t_address,t_bytes32)"},{"astId":57514,"contract":"src/BlueprintV2.sol:BlueprintV2","label":"latestDeploymentRequestID","offset":0,"slot":"5","type":"t_mapping(t_address,t_bytes32)"},{"astId":57518,"contract":"src/BlueprintV2.sol:BlueprintV2","label":"latestProjectID","offset":0,"slot":"6","type":"t_mapping(t_address,t_bytes32)"},{"astId":57522,"contract":"src/BlueprintV2.sol:BlueprintV2","label":"solverReputation","offset":0,"slot":"7","type":"t_mapping(t_address,t_uint256)"},{"astId":57526,"contract":"src/BlueprintV2.sol:BlueprintV2","label":"workerReputation","offset":0,"slot":"8","type":"t_mapping(t_address,t_uint256)"},{"astId":57531,"contract":"src/BlueprintV2.sol:BlueprintV2","label":"requestDeploymentStatus","offset":0,"slot":"9","type":"t_mapping(t_bytes32,t_struct(DeploymentStatus)57498_storage)"},{"astId":57535,"contract":"src/BlueprintV2.sol:BlueprintV2","label":"deploymentProof","offset":0,"slot":"10","type":"t_mapping(t_bytes32,t_string_storage)"},{"astId":57539,"contract":"src/BlueprintV2.sol:BlueprintV2","label":"requestSolver","offset":0,"slot":"11","type":"t_mapping(t_bytes32,t_address)"},{"astId":57543,"contract":"src/BlueprintV2.sol:BlueprintV2","label":"requestWorker","offset":0,"slot":"12","type":"t_mapping(t_bytes32,t_address)"},{"astId":57547,"contract":"src/BlueprintV2.sol:BlueprintV2","label":"projectIDs","offset":0,"slot":"13","type":"t_mapping(t_bytes32,t_address)"},{"astId":57567,"contract":"src/BlueprintV2.sol:BlueprintV2","label":"projects","offset":0,"slot":"14","type":"t_mapping(t_bytes32,t_struct(Project)57556_storage)"},{"astId":57572,"contract":"src/BlueprintV2.sol:BlueprintV2","label":"deploymentIdList","offset":0,"slot":"15","type":"t_mapping(t_bytes32,t_array(t_bytes32)dyn_storage)"}],"types":{"t_address":{"encoding":"inplace","label":"address","numberOfBytes":"20"},"t_array(t_bytes32)dyn_storage":{"encoding":"dynamic_array","label":"bytes32[]","numberOfBytes":"32","base":"t_bytes32"},"t_bytes32":{"encoding":"inplace","label":"bytes32","numberOfBytes":"32"},"t_enum(Status)57492":{"encoding":"inplace","label":"enum Blueprint.Status","numberOfBytes":"1"},"t_mapping(t_address,t_bytes32)":{"encoding":"mapping","key":"t_address","label":"mapping(address => bytes32)","numberOfBytes":"32","value":"t_bytes32"},"t_mapping(t_address,t_uint256)":{"encoding":"mapping","key":"t_address","label":"mapping(address => uint256)","numberOfBytes":"32","value":"t_uint256"},"t_mapping(t_bytes32,t_address)":{"encoding":"mapping","key":"t_bytes32","label":"mapping(bytes32 => address)","numberOfBytes":"32","value":"t_address"},"t_mapping(t_bytes32,t_array(t_bytes32)dyn_storage)":{"encoding":"mapping","key":"t_bytes32","label":"mapping(bytes32 => bytes32[])","numberOfBytes":"32","value":"t_array(t_bytes32)dyn_storage"},"t_mapping(t_bytes32,t_string_storage)":{"encoding":"mapping","key":"t_bytes32","label":"mapping(bytes32 => string)","numberOfBytes":"32","value":"t_string_storage"},"t_mapping(t_bytes32,t_struct(DeploymentStatus)57498_storage)":{"encoding":"mapping","key":"t_bytes32","label":"mapping(bytes32 => struct Blueprint.DeploymentStatus)","numberOfBytes":"32","value":"t_struct(DeploymentStatus)57498_storage"},"t_mapping(t_bytes32,t_struct(Project)57556_storage)":{"encoding":"mapping","key":"t_bytes32","label":"mapping(bytes32 => struct Blueprint.Project)","numberOfBytes":"32","value":"t_struct(Project)57556_storage"},"t_string_storage":{"encoding":"bytes","label":"string","numberOfBytes":"32"},"t_struct(DeploymentStatus)57498_storage":{"encoding":"inplace","label":"struct Blueprint.DeploymentStatus","numberOfBytes":"32","members":[{"astId":57495,"contract":"src/BlueprintV2.sol:BlueprintV2","label":"status","offset":0,"slot":"0","type":"t_enum(Status)57492"},{"astId":57497,"contract":"src/BlueprintV2.sol:BlueprintV2","label":"deployWorkerAddr","offset":1,"slot":"0","type":"t_address"}]},"t_struct(Project)57556_storage":{"encoding":"inplace","label":"struct Blueprint.Project","numberOfBytes":"128","members":[{"astId":57549,"contract":"src/BlueprintV2.sol:BlueprintV2","label":"id","offset":0,"slot":"0","type":"t_bytes32"},{"astId":57551,"contract":"src/BlueprintV2.sol:BlueprintV2","label":"requestProposalID","offset":0,"slot":"1","type":"t_bytes32"},{"astId":57553,"contract":"src/BlueprintV2.sol:BlueprintV2","label":"requestDeploymentID","offset":0,"slot":"2","type":"t_bytes32"},{"astId":57555,"contract":"src/BlueprintV2.sol:BlueprintV2","label":"proposedSolverAddr","offset":0,"slot":"3","type":"t_address"}]},"t_uint256":{"encoding":"inplace","label":"uint256","numberOfBytes":"32"}}},"id":68}